:100000000C943D010C946E010C946E010C946E01E5
:100010000C946E010C946E010C946E010C946E01A4
:100020000C946E010C946E010C946E010C946E0194
:100030000C946E010C946E010C946E010C946E0184
:100040000C946E010C946E010C946E010C946E0174
:100050000C946E010C946E010C946E010C94990B2F
:100060000C946E010C94630B0C94390B0C946E0180
:100070000C946E010C946E010C946E010C946E0144
:100080000C946E010C946E010C946E010C946E0134
:100090000C946E010C946E010C946E010C946E0124
:1000A0000C946E010C946E010C946E010C946E0114
:1000B0000C946E010C946E010C946E010C946E0104
:1000C0000C946E010C946E010C946E010C946E01F4
:1000D0000C946E010C946E010C946E010C946E01E4
:1000E0000C946E010C9402030C94E7020C94D4025D
:1000F0000C946C050C94D7020C9470010C949D0127
:100100000C94DD020C94AC010C94EF020C94C2022E
:100110000C94C8020C94F5020C940E0B0C94530230
:100120000C9403030C94E1020C94D0020C94FD0295
:100130000C94160B0C94C0010C94EB020C94F90275
:100140000C9406020C9407030C94CE010C94180B2B
:100150000C94CC020C94E30B000022002500280034
:100160002B002E00310034000201000005010801BF
:100170000B0100002100240027002A002D00300080
:10018000330001010000040107010A010000200002
:100190002300260029002C002F003200000100005F
:1001A00003010601090105050505070508080808FA
:1001B000020202020A0A08080404040401010101FF
:1001C00001010101030303030303030304070707FA
:1001D0000C0C0C0C0C0C0C0C02020202060606069F
:1001E000060606060B0B0B0B0B0B0B0B010210206C
:1001F000200808102040102040800201020108045D
:1002000002010102040810204080804020100804F0
:100210000201800402018040201008040201080449
:10022000020101020408102040800102040810208D
:10023000408000000A0B02090C0D0E0807030401A0
:1002400000000000000000000000000000000000AE
:10025000000000000000000000000000000012117B
:10026000100000000000000000000000000000007E
:100270000000000000000000E30B11241FBECFEFC0
:10028000D1E2DEBFCDBF00E00CBF12E0A0E0B2E0E3
:10029000E0EAFFE100E00BBF02C007900D92A83A30
:1002A000B107D9F723E0A8EAB2E001C01D92AB354F
:1002B000B207E1F711E0CDE3D1E000E006C02197FD
:1002C0000109802FFE010E94B20FCC33D10780E0DC
:1002D0000807A9F70E94300C0C94CE0F0C94000074
:1002E000AF92BF92CF92DF92EF92FF920F931F9344
:1002F000CF93DF936C017B018B01040F151FEB0182
:100300005E01AE18BF08C017D10759F06991D60138
:10031000ED91FC910190F081E02DC6011995892B9A
:1003200079F7C501DF91CF911F910F91FF90EF9069
:10033000DF90CF90BF90AF900895FC01538D448D16
:10034000252F30E0842F90E0821B930B541710F080
:10035000CF96089501970895FC01918D828D98178D
:1003600061F0A28DAE0FBF2FB11D5D968C91928D65
:100370009F5F9F73928F90E008958FEF9FEF089596
:10038000FC01918D828D981731F0828DE80FF11D5F
:10039000858D90E008958FEF9FEF0895FC01918D7A
:1003A000228D892F90E0805C9F4F821B91098F7373
:1003B0009927089588EB92E00E94CE0121E0892BD5
:1003C00009F420E0822F0895FC01A48DA80FB92F15
:1003D000B11DA35ABF4F2C91848D90E001968F736D
:1003E0009927848FA689B7892C93A089B1898C918C
:1003F000837080648C93938D848D981306C00288DB
:10040000F389E02D80818F7D80830895EF92FF92A4
:100410000F931F93CF93DF93EC0181E0888F9B8D27
:100420008C8D98131AC0E889F989808185FF15C0E1
:100430009FB7F894EE89FF896083E889F989808104
:100440008370806480839FBF81E090E0DF91CF91D3
:100450001F910F91FF90EF900895F62E0B8D10E0F5
:100460000F5F1F4F0F731127E02E8C8D8E110CC064
:100470000FB607FCFACFE889F989808185FFF5CFAF
:10048000CE010E94E401F1CFEB8DEC0FFD2FF11DA9
:10049000E35AFF4FF0829FB7F8940B8FEA89FB89EC
:1004A00080818062CFCFCF93DF93EC01888D88234A
:1004B000B9F0AA89BB89E889F9898C9185FD03C0C7
:1004C000808186FD0DC00FB607FCF7CF8C9185FFAC
:1004D000F2CF808185FFEDCFCE010E94E401E9CF0C
:1004E000DF91CF91089580E090E0892B29F00E9460
:1004F000DA0181110E94000080E090E0892B49F030
:1005000080E090E0892B29F00E94000081110E9478
:10051000000080E090E0892B49F080E090E0892B9A
:1005200029F00E94000081110E94000080E090E00C
:10053000892B49F080E090E0892B29F00E9400008F
:1005400081110C94000008958150823108F05AC046
:10055000E82FF0E08827E055FD4F8F4F0C94B20F45
:10056000D002D402C202C802CC020203D702DD02CA
:10057000E102E702EB02EF02F502F9020203FD02DB
:1005800003030703809180008F7780938000089594
:10059000809180008F7DF9CF80918000877FF5CF9B
:1005A00084B58F7784BD089584B58F7DFBCF80910E
:1005B000B0008F778093B00008958091B0008F7D58
:1005C000F9CF809190008F7780939000089580916B
:1005D00090008F7DF9CF80919000877FF5CF80913B
:1005E000A0008F778093A00008958091A0008F7D58
:1005F000F9CF8091A000877FF5CF809120018F7780
:10060000809320010895809120018F7DF9CF809102
:100610002001877FF5CF1F93CF93DF93282F30E002
:10062000F901EE5CFD4F8491F901E451FE4FD49144
:10063000F901EA55FE4FC491CC23A9F0162F811180
:100640000E94A402EC2FF0E0EE0FFF1FE85AFE4FCD
:10065000A591B4918FB7F894EC91111108C0D09581
:10066000DE23DC938FBFDF91CF911F910895DE2BA6
:10067000F8CF3FB7F8948091AD029091AE02A0916F
:10068000AF02B091B00226B5A89B05C02F3F19F06C
:100690000196A11DB11D3FBFBA2FA92F982F882702
:1006A000BC01CD01620F711D811D911D42E0660FDD
:1006B000771F881F991F4A95D1F708958F929F92AF
:1006C000AF92BF92CF92DF92EF92FF926B017C01CB
:1006D0000E9439034B015C01C114D104E104F1040F
:1006E000B9F00E943903681979098A099B09683EA3
:1006F00073408105910580F321E0C21AD108E10819
:10070000F10888EE880E83E0981EA11CB11CE4CF8E
:10071000FF90EF90DF90CF90BF90AF909F908F9021
:100720000895CF93C82F682F8AE10E940B036C2F86
:100730008BE10E940B036C2F82E30E940B036C2F52
:1007400083E3CF910C940B03CF93C82F682F8DE1D7
:100750000E940B036C2F8CE10E940B036C2F84E32F
:100760000E940B036C2F85E3CF910C940B038F92A7
:100770009F92AF92BF92CF92DF92EF92FF920F9330
:100780001F93CF93DF93E090B602F090B70285E11C
:10079000E816F1040CF091C066E1C62E62E0D62E98
:1007A0007EE3A72E72E0B72E05EF1FEFD0E0C0E08A
:1007B0008091590390915A03C817D9070CF089C04A
:1007C000F5018080F2E0AF0EB11C60E0882D0E9440
:1007D0000B030330110548F4FE01EE0FFF1FEE5D21
:1007E000FD4F60E080810E940B03F6019080F2E0F3
:1007F000CF0ED11C60E0892D0E940B030330110540
:1008000048F4FE01EE0FFF1FE650FE4F60E08081CE
:100810000E940B0365E170E080E090E00E945E03BF
:1008200061E0882D0E940B030330110548F4FE019E
:10083000EE0FFF1FEE5DFD4F61E080810E940B0314
:1008400061E0892D0E940B030330110548F4FE017D
:10085000EE0FFF1FE650FE4F61E080810E940B0308
:1008600064E070E080E090E00E945E03CE15DF055A
:1008700004F560E0882D0E940B030330110548F455
:10088000FE01EE0FFF1FEE5DFD4F60E080810E94D4
:100890000B0360E0892D0E940B030330110548F41F
:1008A000FE01EE0FFF1FE650FE4F60E080810E94C8
:1008B0000B0321960F5F1F4F7BCF85E1E816F104F4
:1008C00041F490E080E00E94A40390E080E00E9468
:1008D0009103EFEFEE1AFE0AF6E1EF16F1048CF445
:1008E000F092B702E092B602DF91CF911F910F9183
:1008F000FF90EF90DF90CF90BF90AF909F908F9040
:10090000089585E190E09093B7028093B602ECCF12
:100910002F923F924F925F926F927F928F929F920F
:10092000AF92BF92CF92DF92EF92FF920F931F93FD
:10093000CF93DF9300D000D01F921F92CDB7DEB7C8
:100940008C012B0190E080E00E94A4034801880CF8
:10095000991C092C000CAA08BB08C501B4010E940F
:100960005E0381E090E00E94A4036201CC0CDD1CD8
:100970000D2C000CEE08FF08C701B6010E945E03B3
:1009800086E192E09A8389836EE3262E62E0362E1A
:10099000A5EFBFEFB887AF83C801110FAA0BBB0B40
:1009A0008B839C83AD83BE83052C000C660877087F
:1009B0002091590330915A038F8198850B968217A5
:1009C00093070CF061C0D1010C91B2E02B0E311CE9
:1009D00060E0802F0E940B03EF81F885E330F10582
:1009E00040F4EE0FFF1FE85CFD4F60E080810E9445
:1009F0000B03A981BA811C911296BA83A98360E086
:100A0000812F0E940B03EF81F885E330F10540F45C
:100A1000EE0FFF1FE05FFD4F60E080810E940B033F
:100A20006B817C818D819E810E945E0361E0802FBD
:100A30000E940B038F8198858330910548F4FC0157
:100A4000EE0FFF1FE85CFD4F61E080810E940B0309
:100A500061E0812F0E940B03AF81B885A330B105FF
:100A600048F4FD01EE0FFF1FE05FFD4F61E0808164
:100A70000E940B03C301B2010E945E03EF81F8855F
:100A80003196F887EF8394CF90E080E00E94910345
:100A9000C501B4010E945E0381E090E00E949103D1
:100AA000C701B60128960FB6F894DEBF0FBECDBFC2
:100AB000DF91CF911F910F91FF90EF90DF90CF903A
:100AC000BF90AF909F908F907F906F905F904F906E
:100AD0003F902F900C945E030F931F93CF93DF935F
:100AE000CEE3D2E08881229661E00E940B0382E08F
:100AF000C036D807B9F7C6E1D2E008E312E0888132
:100B0000229661E00E940B030C171D07C1F761E0FC
:100B100087E10E940B0361E088E10E940B0361E022
:100B200089E10E940B0361E08FE20E940B0361E008
:100B300080E30E940B0361E081E30E940B0361E00C
:100B40008AE10E940B0361E08BE10E940B0361E0EC
:100B500082E30E940B0361E083E30E940B0361E0E8
:100B60008DE10E940B0361E08CE10E940B0361E0C8
:100B700084E30E940B0361E085E3DF91CF911F9135
:100B80000F910C940B034F925F926F927F928F9212
:100B90009F92AF92BF92CF92DF92EF92FF920F930C
:100BA0001F93CF93DF93EC013B012EE3C22E22E093
:100BB000D22E36E1A32E32E0B32EF12CE12C10E040
:100BC00000E042EE442E55245A94809159039091AE
:100BD0005A0308171907CCF5F6018081F2E0CF0E11
:100BE000D11C60E00E940B03F5018081F2E0AF0EA2
:100BF000B11C60E00E940B03C8010B970397A0F49F
:100C00004801880C991C86E1881A9108F401E85C77
:100C1000FD4F60E080810E940B03F401E05FFD4F17
:100C200060E080810E940B03C701B2010E947C0F2B
:100C30006C0F7D1F072E000C880B990B0E945E0322
:100C40000F5F1F4FEC0EFD1EC0CF90E080E00E94B2
:100C5000A40390E080E00E949103BE01660F771F1D
:100C6000072E000C880B990B0E945E03B301770CD2
:100C7000880B990B0E945E03DF91CF911F910F911A
:100C8000FF90EF90DF90CF90BF90AF909F908F90AC
:100C90007F906F905F904F900C946C0570E060E0D7
:100CA00084E690E00E94C3050E946C0590E080E01D
:100CB0000E94A40390E080E00C9491030C944E06F3
:100CC000AF92BF92CF92DF92EF92FF920F931F935A
:100CD000CF93DF9390E080E00E94A403D0E0C0E0D7
:100CE0000091590310915A03809155039091560336
:100CF000800F911FC817D9070CF062C0C017D10729
:100D00004CF4FE01EE0FFF1FE25CFD4F60E08081BE
:100D10000E940B036E018BE0C81AD10893E0C9163C
:100D2000D10408F0C0C07E01EE0CFF1CF701EE5D9F
:100D3000FD4F60E080810E940B03C017D1070CF0CB
:100D4000ACC0F701EA5EFD4F60E080810E940B03BA
:100D5000FE01EE0FFF1FE650FE4F60E080810E9413
:100D60000B03C017D1078CF08E01000F111FF80183
:100D7000E45FFD4F60E080810E940B03F801E85FB3
:100D8000FD4F60E080810E940B03BE010D2E000C20
:100D9000880B990B0E94830E20E030E040EC5FE36B
:100DA0000E940F0F9B01AC0160E070E088E492E4C8
:100DB0000E94E50D0E94520E0E945E03219690CF84
:100DC00081E090E00E94A40381E090E00E94910302
:100DD00036E1C32E32E0D32E4EE3E42E42E0F42E71
:100DE000D0E0C0E0C017D1070CF049C0F701808106
:100DF000F2E0EF0EF11C61E00E940B035E018BE05C
:100E0000A81AB10893E0A916B10448F4FE01EE0F48
:100E1000FF1FEE5DFD4F61E080810E940B03F60134
:100E20008081F2E0CF0ED11C61E00E940B0383E0D1
:100E3000A816B10448F4FE01EE0FFF1FE650FE4F66
:100E400061E080810E940B03BE010D2E000C880B17
:100E5000990B0E94830E20E030E040EC5FE30E949B
:100E60000F0F9B01AC0160E070E080EF91E40E9405
:100E7000E50D0E94520E0E945E032196B3CF90E0D2
:100E800080E0DF91CF911F910F91FF90EF90DF9065
:100E9000CF90BF90AF900C94910393E0C916D1040A
:100EA00008F456CF61CFC017D107BCF7FE01EE0F93
:100EB000FF1FEA5EFD4F65CFCF92DF92EF92FF9268
:100EC0000F931F93CF93DF9360E08DE10E940B039C
:100ED00060E084E30E940B0390E080E00E949103B5
:100EE00046E1E42E42E0F42E0EE312E0C5EFDFEF20
:100EF0002091590330915A03CE010B968217930724
:100F00000CF057C0F801C0800E5F1F4F60E08C2DC1
:100F10000E940B03C330D10548F4FE01EE0FFF1F02
:100F2000E85CFD4F60E080810E940B03F701D080F8
:100F3000F2E0EF0EF11C60E08D2D0E940B03C33038
:100F4000D10548F4FE01EE0FFF1FE05FFD4F60E0AA
:100F500080810E940B0363E370E080E090E00E94D8
:100F60005E0361E08C2D0E940B03C330D10548F471
:100F7000FE01EE0FFF1FE85CFD4F61E080810E94E3
:100F80000B0361E08D2D0E940B03C330D10548F4A3
:100F9000FE01EE0FFF1FE05FFD4F61E080810E94C8
:100FA0000B0368E070E080E090E00E945E03219611
:100FB0009FCFDF91CF911F910F91FF90EF90DF9026
:100FC000CF9008956AE070E082E390E00C94C3054E
:100FD0002F923F924F925F926F927F928F929F9249
:100FE000AF92BF92CF92DF92EF92FF920F931F9337
:100FF000CF93DF93EEE34E2EE2E05E2EF6E12F2E4E
:10100000F2E03F2EE1017201D12CC12C0091590375
:1010100010915A03C016D1063CF168E3E62E62E057
:10102000F62E70E1672E72E0772E63015701912C46
:10103000812CC0915703D09158038C169D062CF536
:1010400060E0F50180810E940B0360E0F601808181
:101050000E940B03F2E08F0E911C84E0A80EB11CDD
:10106000E4E0CE0ED11CE5CF60E0F70180810E9464
:101070000B0360E088810E940B03F2E0CF0ED11CCD
:1010800084E0E80EF11C2496C1CF66E970E080E0B0
:1010900090E00E945E0346E1C42E42E0D42E5EE35F
:1010A000A52E52E0B52E912C812C80169106A4F429
:1010B00061E0F50180810E940B0361E0F60180810F
:1010C0000E940B03F2E08F0E911C84E0A80EB11C6D
:1010D000E4E0CE0ED11CE9CFD12CC12CCC16DD061C
:1010E000A4F461E0F70180810E940B0361E0F30149
:1010F00080810E940B03F2E0CF0ED11C84E0E80E49
:10110000F11CE4E06E0E711CE9CF96E1E92E92E04D
:10111000F92E2EE3C22E22E0D22EAA24A394B12CC3
:10112000A016B10674F0C230D105FCF060E088E191
:101130000E940B0360E080E30E940B03C430D105E2
:10114000A1F460E0F60182810E940B0360E0F701E8
:1011500082810E940B03F2E0AF0EB11C84E0C80E46
:10116000D11CE4E0EE0EF11CDBCF66E970E080E01C
:1011700090E00E945E03EE24E394F12CE016F10669
:101180003CF1C230D10554F061E088E10E940B03CC
:1011900061E080E30E940B03249799F290E080E0E5
:1011A0000E94A40390E080E0DF91CF911F910F9106
:1011B000FF90EF90DF90CF90BF90AF909F908F9077
:1011C0007F906F905F904F903F902F900C94910381
:1011D00061E0F20182810E940B0361E0F1018281F2
:1011E0000E940B03F2E0EF0EF11C84E0480E511C4C
:1011F000E4E02E0E311CC2CFCF92DF92EF92FF922D
:101200000F931F93CF93DF930091590310915A03CB
:10121000E801CC0FDD1FCA5EDD4F17FD13C0F8805B
:1012200060E08F2D0E940B0364E670E080E090E0A8
:101230000E945E0361E08F2D0E940B030150110993
:101240002297EBCF60E085E30E940B0364E670E039
:1012500080E090E00E945E0361E085E30E940B0362
:1012600060E084E30E940B0364E670E080E090E0BD
:101270000E945E0361E084E30E940B0360E08DE165
:101280000E940B0364E670E080E090E00E945E0341
:1012900061E08DE10E940B0360E08CE10E940B0392
:1012A00064E670E080E090E00E945E0361E08CE123
:1012B0000E940B03CEE3D2E01881229660E0812FDA
:1012C0000E940B0364E670E080E090E00E945E0301
:1012D00061E0812F0E940B0382E0C036D80761F7DE
:1012E0008CE0E82E82E0F82E08E012E0D0E0C0E0CA
:1012F0008091550390915603C817D9070CF5F70153
:10130000C080F2E0EF0EF11C60E08C2D0E940B0318
:10131000F801D0800E5F1F4F60E08D2D0E940B03FF
:1013200064E670E080E090E00E945E0361E08C2D56
:101330000E940B0361E08D2D0E940B032196D8CFF4
:10134000DF91CF911F910F91FF90EF90DF90CF90A1
:10135000089560E086E00E940B0360E087E00E9451
:101360000B0360E081E10E940B0360E082E10E94D8
:101370000B0360E08EE10E940B0360E08FE10E94AE
:101380000B0360E089E20E940B0360E08AE20E94A6
:101390000B0364E670E080E090E00E945E0361E091
:1013A00086E00E940B0361E087E00E940B0361E08E
:1013B00081E10E940B0361E082E10E940B0361E086
:1013C0008EE10E940B0361E08FE10E940B0361E05C
:1013D00089E20E940B0361E08AE20E940B0364E64B
:1013E00070E080E090E00E945E0360E086E00E9492
:1013F0000B0360E087E00E940B0360E081E10E9444
:101400000B0360E082E10E940B0360E08EE10E942A
:101410000B0360E08FE10E940B0360E089E20E9411
:101420000B0360E08AE20E940B0364E670E080E058
:1014300090E00E945E0361E086E00E940B0361E0A1
:1014400087E00E940B0361E081E10E940B0361E0F1
:1014500082E10E940B0361E08EE10E940B0361E0D8
:101460008FE10E940B0361E089E20E940B0361E0BF
:101470008AE20E940B0368EE73E080E090E00C9437
:101480005E030C94B703AF92BF92CF92DF92EF92BC
:10149000FF920F931F93CF93DF9306E112E02EE3A9
:1014A000E22E22E0F22E67015801C5EFDFEF209116
:1014B000590330915A03CE010B968217930784F596
:1014C000F6018081F2E0CF0ED11C60E00E940B0398
:1014D000C330D10548F4FE01EE0FFF1FE85CFD4F5D
:1014E00060E080810E940B03F5018081F2E0AF0E85
:1014F000B11C60E00E940B03C330D10548F4FE012B
:10150000EE0FFF1FE05FFD4F60E080810E940B0344
:1015100064E170E080E090E00E945E032196C7CF16
:1015200064E670E080E090E00E945E030E946C053B
:1015300062E370E080E090E00E945E03F70180814A
:10154000F2E0EF0EF11C60E00E940B0380E6E8166B
:1015500082E0F80699F7F80180810E5F1F4F60E086
:101560000E940B03F2E008331F07A9F760E087E150
:101570000E940B0360E088E10E940B0360E089E1B8
:101580000E940B0360E08FE20E940B0360E080E3A7
:101590000E940B0360E081E30E940B0360E08AE19C
:1015A0000E940B0360E08BE10E940B0360E082E38A
:1015B0000E940B0360E083E30E940B0360E08DE177
:1015C0000E940B0360E08CE10E940B0360E084E367
:1015D0000E940B0360E085E30E940B0362E370E06E
:1015E00080E090E00E945E030E946C0568EE73E06C
:1015F00080E090E0DF91CF911F910F91FF90EF90ED
:10160000DF90CF90BF90AF900C945E030C944E0689
:1016100062E370E080E590E00C94880490E080E064
:101620000E94A40390E080E00C9491030C94B70313
:1016300060E570E082E390E00C948804FC01019086
:101640000020E9F73197AF01481B590BBC0188EB2B
:1016500092E00C947001CF93DF930E941E0BEC017B
:1016600082E792E00E941E0B8C0F9D1FDF91CF91AD
:1016700008951F920F920FB60F9211240BB60F927E
:101680002F933F934F935F936F937F938F939F938A
:10169000AF93BF93EF93FF9388EB92E00E94E40136
:1016A000FF91EF91BF91AF919F918F917F916F913A
:1016B0005F914F913F912F910F900BBE0F900FBEF6
:1016C0000F901F9018951F920F920FB60F92112432
:1016D0000BB60F922F938F939F93EF93FF93E0910D
:1016E000C802F091C9028081E091CE02F091CF0250
:1016F00082FD1DC090818091D1028F5F8F732091F8
:10170000D202821741F0E091D102F0E0E854FD4F9F
:10171000958F8093D102FF91EF919F918F912F919F
:101720000F900BBE0F900FBE0F901F9018958081E9
:10173000F2CF1F920F920FB60F9211242F933F9367
:101740008F939F93AF93BF938091A9029091AA0228
:10175000A091AB02B091AC023091A80223E0230F1C
:101760002D3758F50196A11DB11D2093A802809335
:10177000A9029093AA02A093AB02B093AC0280910D
:10178000AD029091AE02A091AF02B091B00201966D
:10179000A11DB11D8093AD029093AE02A093AF0244
:1017A000B093B002BF91AF919F918F913F912F91D4
:1017B0000F900FBE0F901F90189526E8230F0296EA
:1017C000A11DB11DD2CFE8EBF2E01382128288EEA8
:1017D00093E0A0E0B0E084839583A683B78384E69A
:1017E00092E09183808385EC90E09587848784ECF8
:1017F00090E09787868780EC90E0918B808B81ECDE
:1018000090E0938B828B82EC90E0958B848B86ECBE
:1018100090E0978B868B118E128E138E148E81E141
:1018200090E090935A038093590383E090E0909363
:1018300058038093570382E090E09093560380937F
:101840005503E0E0F2E088E19BE09183808386E14C
:101850009BE0938382838EE09BE09583848308954D
:10186000CF93DF93CDB7DEB7A1970FB6F894DEBF65
:101870000FBECDBF789484B5826084BD84B581608D
:1018800084BD85B5826085BD85B5816085BD80914B
:101890006E00816080936E001092810080918100C3
:1018A00082608093810080918100816080938100BB
:1018B000809180008160809380008091B10084607D
:1018C0008093B1008091B00081608093B0008091DE
:1018D000910082608093910080919100816080935B
:1018E0009100809190008160809390008091A10090
:1018F00082608093A1008091A10081608093A1000B
:101900008091A00081608093A0008091210182607D
:101910008093210180912101816080932101809138
:10192000200181608093200180917A0084608093FF
:101930007A0080917A00826080937A0080917A00A8
:10194000816080937A0080917A00806880937A0029
:101950001092C100E091C802F091C90282E0808338
:10196000E091C402F091C5021082E091C602F091AC
:10197000C7028FEC80831092D002E091CC02F091EC
:10198000CD0286E08083E091CA02F091CB02808193
:1019900080618083E091CA02F091CB0280818860EF
:1019A0008083E091CA02F091CB02808180688083BD
:1019B000E091CA02F091CB0280818F7D808361E348
:1019C000E62E62E0F62EF70124917BEEC72E71E041
:1019D000D72EF60184918823C9F090E0880F991FD3
:1019E000FC01EE58FE4FA591B491FC01E85AFE4F60
:1019F000459154919FB7F8943C91822F8095832311
:101A00008C93FA018081282B20839FBF06E010E091
:101A1000802FF801E451FE4F9491F801EA55FE4FF2
:101A20002491222399F030E0220F331FF901EE5860
:101A3000FE4FA591B491F901E85AFE4F25913491DA
:101A40002FB7F894EC919E2B9C932FBF61E00E94DE
:101A50000B030F5F1F4F06331105D1F690E080E0B6
:101A60000E94CF0D8093B10285E792E00E942B0B7C
:101A700027E7A22E22E0B22E3AE0432E512C612C11
:101A8000712C65E070E080E090E00E945E03F5015B
:101A90008491F7011491F6010491002309F477C0B1
:101AA00081110E94A402E02FF0E0EE0FFF1FE45727
:101AB000FE4FA591B4918C91182331E020E009F4F8
:101AC00030E0832F922F9093B5028093B40220913F
:101AD000B2023091B3022817390709F442C0892BAA
:101AE00009F058C06091B1026F5F63706093B102FA
:101AF00090E080E00E94D70D0E946C051092B70222
:101B00001092B60286E892E00E942B0B89E892E0E0
:101B10000E941E0B2091B10230E050E040E019A27B
:101B20008E010F5D1F4FCA01B901A30192010E94EE
:101B3000900F605DF80162938F0121153105410519
:101B4000510589F7309719F0CF010E941E0B82E7EB
:101B500092E00E941E0B65E070E080E090E00E9441
:101B60005E038091B4029091B5029093B30280938A
:101B7000B202E091B102F0E0EE0FFF1FE050FE4F25
:101B80000190F081E02D19950E9473027ACF90E0C8
:101B900080E099CF83EA92E00E942B0BDCCFF99989
:101BA000FECF92BD81BDF89A992780B50895262F62
:101BB000F999FECF1FBA92BD81BD20BD0FB6F89432
:101BC000FA9AF99A0FBE019608955058BB27AA2792
:101BD0000E94FD0D0C94D50E0E94C70E38F00E9495
:101BE000CE0E20F039F49F3F19F426F40C94C40E65
:101BF0000EF4E095E7FB0C94BE0EE92F0E94E60E72
:101C000058F3BA17620773078407950720F079F431
:101C1000A6F50C94080F0EF4E0950B2EBA2FA02D0C
:101C20000B01B90190010C01CA01A0011124FF2789
:101C3000591B99F0593F50F4503E68F11A16F04084
:101C4000A22F232F342F4427585FF3CF4695379583
:101C50002795A795F0405395C9F77EF41F16BA0B48
:101C6000620B730B840BBAF09150A1F0FF0FBB1FF6
:101C7000661F771F881FC2F70EC0BA0F621F731F3F
:101C8000841F48F4879577956795B795F7959E3F9C
:101C900008F0B0CF9395880F08F09927EE0F97952D
:101CA000879508950E94EE0E88F09F5798F0B92FFF
:101CB0009927B751B0F0E1F0660F771F881F991F81
:101CC0001AF0BA95C9F714C0B13091F00E94080F0C
:101CD000B1E008950C94080F672F782F8827B85F1C
:101CE00039F0B93FCCF3869577956795B395D9F7D9
:101CF0003EF490958095709561957F4F8F4F9F4FE3
:101D00000895E89409C097FB3EF4909580957095EE
:101D100061957F4F8F4F9F4F9923A9F0F92F96E937
:101D2000BB279395F695879577956795B795F111AC
:101D3000F8CFFAF4BB0F11F460FF1BC06F5F7F4F49
:101D40008F4F9F4F16C0882311F096E911C077235B
:101D500021F09EE8872F762F05C0662371F096E864
:101D6000862F70E060E02AF09A95660F771F881F33
:101D7000DAF7880F9695879597F9089597F99F67F1
:101D800080E870E060E008959FEF80EC0895002403
:101D90000A941616170618060906089500240A94D0
:101DA00012161306140605060895092E0394000C56
:101DB00011F4882352F0BB0F40F4BF2B11F460FFE5
:101DC00004C06F5F7F4F8F4F9F4F089557FD90580E
:101DD000440F551F59F05F3F71F04795880F97FBEF
:101DE000991F61F09F3F79F08795089512161306A9
:101DF0001406551FF2CF4695F1DF08C016161706D8
:101E00001806991FF1CF869571056105089408950C
:101E1000E894BB2766277727CB0197F908950E949E
:101E2000220F0C94D50E0E94C70E38F00E94CE0EE1
:101E300020F0952311F00C94BE0E0C94C40E1124C6
:101E40000C94090F0E94E60E70F3959FC1F3950F55
:101E500050E0551F629FF001729FBB27F00DB11D2E
:101E6000639FAA27F00DB11DAA1F649F6627B00DBE
:101E7000A11D661F829F2227B00DA11D621F739FA7
:101E8000B00DA11D621F839FA00D611D221F749FB5
:101E90003327A00D611D231F849F600D211D822FFC
:101EA000762F6A2F11249F5750409AF0F1F0882323
:101EB0004AF0EE0FFF1FBB1F661F771F881F915050
:101EC0005040A9F79E3F510580F00C94BE0E0C9433
:101ED000090F5F3FE4F3983ED4F3869577956795B5
:101EE000B795F795E7959F5FC1F7FE2B880F911D7A
:101EF0009695879597F9089597FB072E16F4009409
:101F000007D077FD09D00E94BA0F07FC05D03EF438
:101F1000909581959F4F0895709561957F4F089595
:101F2000A1E21A2EAA1BBB1BFD010DC0AA1FBB1FDD
:101F3000EE1FFF1FA217B307E407F50720F0A21B4F
:101F4000B30BE40BF50B661F771F881F991F1A94BC
:101F500069F760957095809590959B01AC01BD01E6
:101F6000CF010895EE0FFF1F881F8BBF0790F691DA
:101F7000E02D1994AA1BBB1B51E107C0AA1FBB1F70
:101F8000A617B70710F0A61BB70B881F991F5A9505
:101F9000A9F780959095BC01CD010895F894FFCFE5
:101FA0000000000000006C05320033001A001B0026
:101FB0002F00300031001E001F00200021002200F1
:101FC00023002400250026002700280029002A00DD
:101FD0002B002C002D002E00170018001900060001
:101FE0000700080009000A000B000C000D000E009D
:101FF0000F0010001100120013001400150016004D
:1020000000000000060270019D015302CE01AC01E8
:10201000C0010D0A003C534554555020434F4D50CC
:102020004C4554453E006F6E006E756D62657220C2
:102030006F6620627574746F6E2070757368657357
:082040003A20006F6666000003
:00000001FF
