:020000040000FA
:100000000C943D010C946E010C946E010C946E01E5
:100010000C946E010C946E010C946E010C946E01A4
:100020000C946E010C946E010C946E010C946E0194
:100030000C946E010C946E010C946E010C946E0184
:100040000C946E010C946E010C946E010C946E0174
:100050000C946E010C946E010C946E010C94990B2F
:100060000C946E010C94630B0C94390B0C946E0180
:100070000C946E010C946E010C946E010C946E0144
:100080000C946E010C946E010C946E010C946E0134
:100090000C946E010C946E010C946E010C946E0124
:1000A0000C946E010C946E010C946E010C946E0114
:1000B0000C946E010C946E010C946E010C946E0104
:1000C0000C946E010C946E010C946E010C946E01F4
:1000D0000C946E010C946E010C946E010C946E01E4
:1000E0000C946E010C9402030C94E7020C94D4025D
:1000F0000C946C050C94D7020C9470010C949D0127
:100100000C94DD020C94AC010C94EF020C94C2022E
:100110000C94C8020C94F5020C940E0B0C94530230
:100120000C9403030C94E1020C94D0020C94FD0295
:100130000C94160B0C94C0010C94EB020C94F90275
:100140000C9406020C9407030C94CE010C94180B2B
:100150000C94CC020C94E30B000022002500280034
:100160002B002E00310034000201000005010801BF
:100170000B0100002100240027002A002D00300080
:10018000330001010000040107010A010000200002
:100190002300260029002C002F003200000100005F
:1001A00003010601090105050505070508080808FA
:1001B000020202020A0A08080404040401010101FF
:1001C00001010101030303030303030304070707FA
:1001D0000C0C0C0C0C0C0C0C02020202060606069F
:1001E000060606060B0B0B0B0B0B0B0B010210206C
:1001F000200808102040102040800201020108045D
:1002000002010102040810204080804020100804F0
:100210000201800402018040201008040201080449
:10022000020101020408102040800102040810208D
:10023000408000000A0B02090C0D0E0807030401A0
:1002400000000000000000000000000000000000AE
:10025000000000000000000000000000000012117B
:10026000100000000000000000000000000000007E
:100270000000000000000000E30B11241FBECFEFC0
:10028000D1E2DEBFCDBF00E00CBF12E0A0E0B2E0E3
:10029000E0EAFFE100E00BBF02C007900D92A83A30
:1002A000B107D9F723E0A8EAB2E001C01D92AB354F
:1002B000B207E1F711E0CDE3D1E000E006C02197FD
:1002C0000109802FFE010E94B20FCC33D10780E0DC
:1002D0000807A9F70E94300C0C94CE0F0C94000074
:1002E000AF92BF92CF92DF92EF92FF920F931F9344
:1002F000CF93DF936C017B018B01040F151FEB0182
:100300005E01AE18BF08C017D10759F06991D60138
:10031000ED91FC910190F081E02DC6011995892B9A
:1003200079F7C501DF91CF911F910F91FF90EF9069
:10033000DF90CF90BF90AF900895FC01538D448D16
:10034000252F30E0842F90E0821B930B541710F080
:10035000CF96089501970895FC01918D828D98178D
:1003600061F0A28DAE0FBF2FB11D5D968C91928D65
:100370009F5F9F73928F90E008958FEF9FEF089596
:10038000FC01918D828D981731F0828DE80FF11D5F
:10039000858D90E008958FEF9FEF0895FC01918D7A
:1003A000228D892F90E0805C9F4F821B91098F7373
:1003B0009927089588EB92E00E94CE0121E0892BD5
:1003C00009F420E0822F0895FC01A48DA80FB92F15
:1003D000B11DA35ABF4F2C91848D90E001968F736D
:1003E0009927848FA689B7892C93A089B1898C918C
:1003F000837080648C93938D848D981306C00288DB
:10040000F389E02D80818F7D80830895EF92FF92A4
:100410000F931F93CF93DF93EC0181E0888F9B8D27
:100420008C8D98131AC0E889F989808185FF15C0E1
:100430009FB7F894EE89FF896083E889F989808104
:100440008370806480839FBF81E090E0DF91CF91D3
:100450001F910F91FF90EF900895F62E0B8D10E0F5
:100460000F5F1F4F0F731127E02E8C8D8E110CC064
:100470000FB607FCFACFE889F989808185FFF5CFAF
:10048000CE010E94E401F1CFEB8DEC0FFD2FF11DA9
:10049000E35AFF4FF0829FB7F8940B8FEA89FB89EC
:1004A00080818062CFCFCF93DF93EC01888D88234A
:1004B000B9F0AA89BB89E889F9898C9185FD03C0C7
:1004C000808186FD0DC00FB607FCF7CF8C9185FFAC
:1004D000F2CF808185FFEDCFCE010E94E401E9CF0C
:1004E000DF91CF91089580E090E0892B29F00E9460
:1004F000DA0181110E94000080E090E0892B49F030
:1005000080E090E0892B29F00E94000081110E9478
:10051000000080E090E0892B49F080E090E0892B9A
:1005200029F00E94000081110E94000080E090E00C
:10053000892B49F080E090E0892B29F00E9400008F
:1005400081110C94000008958150823108F05AC046
:10055000E82FF0E08827E055FD4F8F4F0C94B20F45
:10056000D002D402C202C802CC020203D702DD02CA
:10057000E102E702EB02EF02F502F9020203FD02DB
:1005800003030703809180008F7780938000089594
:10059000809180008F7DF9CF80918000877FF5CF9B
:1005A00084B58F7784BD089584B58F7DFBCF80910E
:1005B000B0008F778093B00008958091B0008F7D58
:1005C000F9CF809190008F7780939000089580916B
:1005D00090008F7DF9CF80919000877FF5CF80913B
:1005E000A0008F778093A00008958091A0008F7D58
:1005F000F9CF8091A000877FF5CF809120018F7780
:10060000809320010895809120018F7DF9CF809102
:100610002001877FF5CF1F93CF93DF93282F30E002
:10062000F901EE5CFD4F8491F901E451FE4FD49144
:10063000F901EA55FE4FC491CC23A9F0162F811180
:100640000E94A402EC2FF0E0EE0FFF1FE85AFE4FCD
:10065000A591B4918FB7F894EC91111108C0D09581
:10066000DE23DC938FBFDF91CF911F910895DE2BA6
:10067000F8CF3FB7F8948091AD029091AE02A0916F
:10068000AF02B091B00226B5A89B05C02F3F19F06C
:100690000196A11DB11D3FBFBA2FA92F982F882702
:1006A000BC01CD01620F711D811D911D42E0660FDD
:1006B000771F881F991F4A95D1F708958F929F92AF
:1006C000AF92BF92CF92DF92EF92FF926B017C01CB
:1006D0000E9439034B015C01C114D104E104F1040F
:1006E000B9F00E943903681979098A099B09683EA3
:1006F00073408105910580F321E0C21AD108E10819
:10070000F10888EE880E83E0981EA11CB11CE4CF8E
:10071000FF90EF90DF90CF90BF90AF909F908F9021
:100720000895CF93C82F682F8AE10E940B036C2F86
:100730008BE10E940B036C2F82E30E940B036C2F52
:1007400083E3CF910C940B03CF93C82F682F8DE1D7
:100750000E940B036C2F8CE10E940B036C2F84E32F
:100760000E940B036C2F85E3CF910C940B038F92A7
:100770009F92AF92BF92CF92DF92EF92FF920F9330
:100780001F93CF93DF93E090B602F090B70285E11C
:10079000E816F1040CF091C066E1C62E62E0D62E98
:1007A0007EE3A72E72E0B72E05EF1FEFD0E0C0E08A
:1007B0008091590390915A03C817D9070CF089C04A
:1007C000F5018080F2E0AF0EB11C60E0882D0E9440
:1007D0000B030330110548F4FE01EE0FFF1FEE5D21
:1007E000FD4F60E080810E940B03F6019080F2E0F3
:1007F000CF0ED11C60E0892D0E940B030330110540
:1008000048F4FE01EE0FFF1FE650FE4F60E08081CE
:100810000E940B0365E170E080E090E00E945E03BF
:1008200061E0882D0E940B030330110548F4FE019E
:10083000EE0FFF1FEE5DFD4F61E080810E940B0314
:1008400061E0892D0E940B030330110548F4FE017D
:10085000EE0FFF1FE650FE4F61E080810E940B0308
:1008600064E070E080E090E00E945E03CE15DF055A
:1008700004F560E0882D0E940B030330110548F455
:10088000FE01EE0FFF1FEE5DFD4F60E080810E94D4
:100890000B0360E0892D0E940B030330110548F41F
:1008A000FE01EE0FFF1FE650FE4F60E080810E94C8
:1008B0000B0321960F5F1F4F7BCF85E1E816F104F4
:1008C00041F490E080E00E94A40390E080E00E9468
:1008D0009103EFEFEE1AFE0AF6E1EF16F1048CF445
:1008E000F092B702E092B602DF91CF911F910F9183
:1008F000FF90EF90DF90CF90BF90AF909F908F9040
:10090000089585E190E09093B7028093B602ECCF12
:100910002F923F924F925F926F927F928F929F920F
:10092000AF92BF92CF92DF92EF92FF920F931F93FD
:10093000CF93DF9300D000D01F921F92CDB7DEB7C8
:100940008C012B0190E080E00E94A4034801880CF8
:10095000991C092C000CAA08BB08C501B4010E940F
:100960005E0381E090E00E94A4036201CC0CDD1CD8
:100970000D2C000CEE08FF08C701B6010E945E03B3
:1009800086E192E09A8389836EE3262E62E0362E1A
:10099000A5EFBFEFB887AF83C801110FAA0BBB0B40
:1009A0008B839C83AD83BE83052C000C660877087F
:1009B0002091590330915A038F8198850B968217A5
:1009C00093070CF061C0D1010C91B2E02B0E311CE9
:1009D00060E0802F0E940B03EF81F885E330F10582
:1009E00040F4EE0FFF1FE85CFD4F60E080810E9445
:1009F0000B03A981BA811C911296BA83A98360E086
:100A0000812F0E940B03EF81F885E330F10540F45C
:100A1000EE0FFF1FE05FFD4F60E080810E940B033F
:100A20006B817C818D819E810E945E0361E0802FBD
:100A30000E940B038F8198858330910548F4FC0157
:100A4000EE0FFF1FE85CFD4F61E080810E940B0309
:100A500061E0812F0E940B03AF81B885A330B105FF
:100A600048F4FD01EE0FFF1FE05FFD4F61E0808164
:100A70000E940B03C301B2010E945E03EF81F8855F
:100A80003196F887EF8394CF90E080E00E94910345
:100A9000C501B4010E945E0381E090E00E949103D1
:100AA000C701B60128960FB6F894DEBF0FBECDBFC2
:100AB000DF91CF911F910F91FF90EF90DF90CF903A
:100AC000BF90AF909F908F907F906F905F904F906E
:100AD0003F902F900C945E030F931F93CF93DF935F
:100AE000CEE3D2E08881229661E00E940B0382E08F
:100AF000C036D807B9F7C6E1D2E008E312E0888132
:100B0000229661E00E940B030C171D07C1F761E0FC
:100B100087E10E940B0361E088E10E940B0361E022
:100B200089E10E940B0361E08FE20E940B0361E008
:100B300080E30E940B0361E081E30E940B0361E00C
:100B40008AE10E940B0361E08BE10E940B0361E0EC
:100B500082E30E940B0361E083E30E940B0361E0E8
:100B60008DE10E940B0361E08CE10E940B0361E0C8
:100B700084E30E940B0361E085E3DF91CF911F9135
:100B80000F910C940B034F925F926F927F928F9212
:100B90009F92AF92BF92CF92DF92EF92FF920F930C
:100BA0001F93CF93DF93EC013B012EE3C22E22E093
:100BB000D22E36E1A32E32E0B32EF12CE12C10E040
:100BC00000E042EE442E55245A94809159039091AE
:100BD0005A0308171907CCF5F6018081F2E0CF0E11
:100BE000D11C60E00E940B03F5018081F2E0AF0EA2
:100BF000B11C60E00E940B03C8010B970397A0F49F
:100C00004801880C991C86E1881A9108F401E85C77
:100C1000FD4F60E080810E940B03F401E05FFD4F17
:100C200060E080810E940B03C701B2010E947C0F2B
:100C30006C0F7D1F072E000C880B990B0E945E0322
:100C40000F5F1F4FEC0EFD1EC0CF90E080E00E94B2
:100C5000A40390E080E00E949103BE01660F771F1D
:100C6000072E000C880B990B0E945E03B301770CD2
:100C7000880B990B0E945E03DF91CF911F910F911A
:100C8000FF90EF90DF90CF90BF90AF909F908F90AC
:100C90007F906F905F904F900C946C0570E060E0D7
:100CA00084E690E00E94C3050E946C0590E080E01D
:100CB0000E94A40390E080E00C9491030C944E06F3
:100CC000AF92BF92CF92DF92EF92FF920F931F935A
:100CD000CF93DF9390E080E00E94A403D0E0C0E0D7
:100CE0000091590310915A03809155039091560336
:100CF000800F911FC817D9070CF062C0C017D10729
:100D00004CF4FE01EE0FFF1FE25CFD4F60E08081BE
:100D10000E940B036E018BE0C81AD10893E0C9163C
:100D2000D10408F0C0C07E01EE0CFF1CF701EE5D9F
:100D3000FD4F60E080810E940B03C017D1070CF0CB
:100D4000ACC0F701EA5EFD4F60E080810E940B03BA
:100D5000FE01EE0FFF1FE650FE4F60E080810E9413
:100D60000B03C017D1078CF08E01000F111FF80183
:100D7000E45FFD4F60E080810E940B03F801E85FB3
:100D8000FD4F60E080810E940B03BE010D2E000C20
:100D9000880B990B0E94830E20E030E040EC5FE36B
:100DA0000E940F0F9B01AC0160E070E088E492E4C8
:100DB0000E94E50D0E94520E0E945E03219690CF84
:100DC00081E090E00E94A40381E090E00E94910302
:100DD00036E1C32E32E0D32E4EE3E42E42E0F42E71
:100DE000D0E0C0E0C017D1070CF049C0F701808106
:100DF000F2E0EF0EF11C61E00E940B035E018BE05C
:100E0000A81AB10893E0A916B10448F4FE01EE0F48
:100E1000FF1FEE5DFD4F61E080810E940B03F60134
:100E20008081F2E0CF0ED11C61E00E940B0383E0D1
:100E3000A816B10448F4FE01EE0FFF1FE650FE4F66
:100E400061E080810E940B03BE010D2E000C880B17
:100E5000990B0E94830E20E030E040EC5FE30E949B
:100E60000F0F9B01AC0160E070E080EF91E40E9405
:100E7000E50D0E94520E0E945E032196B3CF90E0D2
:100E800080E0DF91CF911F910F91FF90EF90DF9065
:100E9000CF90BF90AF900C94910393E0C916D1040A
:100EA00008F456CF61CFC017D107BCF7FE01EE0F93
:100EB000FF1FEA5EFD4F65CFCF92DF92EF92FF9268
:100EC0000F931F93CF93DF9360E08DE10E940B039C
:100ED00060E084E30E940B0390E080E00E949103B5
:100EE00046E1E42E42E0F42E0EE312E0C5EFDFEF20
:100EF0002091590330915A03CE010B968217930724
:100F00000CF057C0F801C0800E5F1F4F60E08C2DC1
:100F10000E940B03C330D10548F4FE01EE0FFF1F02
:100F2000E85CFD4F60E080810E940B03F701D080F8
:100F3000F2E0EF0EF11C60E08D2D0E940B03C33038
:100F4000D10548F4FE01EE0FFF1FE05FFD4F60E0AA
:100F500080810E940B0363E370E080E090E00E94D8
:100F60005E0361E08C2D0E940B03C330D10548F471
:100F7000FE01EE0FFF1FE85CFD4F61E080810E94E3
:100F80000B0361E08D2D0E940B03C330D10548F4A3
:100F9000FE01EE0FFF1FE05FFD4F61E080810E94C8
:100FA0000B0368E070E080E090E00E945E03219611
:100FB0009FCFDF91CF911F910F91FF90EF90DF9026
:100FC000CF9008956AE070E082E390E00C94C3054E
:100FD0002F923F924F925F926F927F928F929F9249
:100FE000AF92BF92CF92DF92EF92FF920F931F9337
:100FF000CF93DF93EEE34E2EE2E05E2EF6E12F2E4E
:10100000F2E03F2EE1017201D12CC12C0091590375
:1010100010915A03C016D1063CF168E3E62E62E057
:10102000F62E70E1672E72E0772E63015701912C46
:10103000812CC0915703D09158038C169D062CF536
:1010400060E0F50180810E940B0360E0F601808181
:101050000E940B03F2E08F0E911C84E0A80EB11CDD
:10106000E4E0CE0ED11CE5CF60E0F70180810E9464
:101070000B0360E088810E940B03F2E0CF0ED11CCD
:1010800084E0E80EF11C2496C1CF66E970E080E0B0
:1010900090E00E945E0346E1C42E42E0D42E5EE35F
:1010A000A52E52E0B52E912C812C80169106A4F429
:1010B00061E0F50180810E940B0361E0F60180810F
:1010C0000E940B03F2E08F0E911C84E0A80EB11C6D
:1010D000E4E0CE0ED11CE9CFD12CC12CCC16DD061C
:1010E000A4F461E0F70180810E940B0361E0F30149
:1010F00080810E940B03F2E0CF0ED11C84E0E80E49
:10110000F11CE4E06E0E711CE9CF96E1E92E92E04D
:10111000F92E2EE3C22E22E0D22EAA24A394B12CC3
:10112000A016B10674F0C230D105FCF060E088E191
:101130000E940B0360E080E30E940B03C430D105E2
:10114000A1F460E0F60182810E940B0360E0F701E8
:1011500082810E940B03F2E0AF0EB11C84E0C80E46
:10116000D11CE4E0EE0EF11CDBCF66E970E080E01C
:1011700090E00E945E03EE24E394F12CE016F10669
:101180003CF1C230D10554F061E088E10E940B03CC
:1011900061E080E30E940B03249799F290E080E0E5
:1011A0000E94A40390E080E0DF91CF911F910F9106
:1011B000FF90EF90DF90CF90BF90AF909F908F9077
:1011C0007F906F905F904F903F902F900C94910381
:1011D00061E0F20182810E940B0361E0F1018281F2
:1011E0000E940B03F2E0EF0EF11C84E0480E511C4C
:1011F000E4E02E0E311CC2CFCF92DF92EF92FF922D
:101200000F931F93CF93DF930091590310915A03CB
:10121000E801CC0FDD1FCA5EDD4F17FD13C0F8805B
:1012200060E08F2D0E940B0364E670E080E090E0A8
:101230000E945E0361E08F2D0E940B030150110993
:101240002297EBCF60E085E30E940B0364E670E039
:1012500080E090E00E945E0361E085E30E940B0362
:1012600060E084E30E940B0364E670E080E090E0BD
:101270000E945E0361E084E30E940B0360E08DE165
:101280000E940B0364E670E080E090E00E945E0341
:1012900061E08DE10E940B0360E08CE10E940B0392
:1012A00064E670E080E090E00E945E0361E08CE123
:1012B0000E940B03CEE3D2E01881229660E0812FDA
:1012C0000E940B0364E670E080E090E00E945E0301
:1012D00061E0812F0E940B0382E0C036D80761F7DE
:1012E0008CE0E82E82E0F82E08E012E0D0E0C0E0CA
:1012F0008091550390915603C817D9070CF5F70153
:10130000C080F2E0EF0EF11C60E08C2D0E940B0318
:10131000F801D0800E5F1F4F60E08D2D0E940B03FF
:1013200064E670E080E090E00E945E0361E08C2D56
:101330000E940B0361E08D2D0E940B032196D8CFF4
:10134000DF91CF911F910F91FF90EF90DF90CF90A1
:10135000089560E086E00E940B0360E087E00E9451
:101360000B0360E081E10E940B0360E082E10E94D8
:101370000B0360E08EE10E940B0360E08FE10E94AE
:101380000B0360E089E20E940B0360E08AE20E94A6
:101390000B0364E670E080E090E00E945E0361E091
:1013A00086E00E940B0361E087E00E940B0361E08E
:1013B00081E10E940B0361E082E10E940B0361E086
:1013C0008EE10E940B0361E08FE10E940B0361E05C
:1013D00089E20E940B0361E08AE20E940B0364E64B
:1013E00070E080E090E00E945E0360E086E00E9492
:1013F0000B0360E087E00E940B0360E081E10E9444
:101400000B0360E082E10E940B0360E08EE10E942A
:101410000B0360E08FE10E940B0360E089E20E9411
:101420000B0360E08AE20E940B0364E670E080E058
:1014300090E00E945E0361E086E00E940B0361E0A1
:1014400087E00E940B0361E081E10E940B0361E0F1
:1014500082E10E940B0361E08EE10E940B0361E0D8
:101460008FE10E940B0361E089E20E940B0361E0BF
:101470008AE20E940B0368EE73E080E090E00C9437
:101480005E030C94B703AF92BF92CF92DF92EF92BC
:10149000FF920F931F93CF93DF9306E112E02EE3A9
:1014A000E22E22E0F22E67015801C5EFDFEF209116
:1014B000590330915A03CE010B968217930784F596
:1014C000F6018081F2E0CF0ED11C60E00E940B0398
:1014D000C330D10548F4FE01EE0FFF1FE85CFD4F5D
:1014E00060E080810E940B03F5018081F2E0AF0E85
:1014F000B11C60E00E940B03C330D10548F4FE012B
:10150000EE0FFF1FE05FFD4F60E080810E940B0344
:1015100064E170E080E090E00E945E032196C7CF16
:1015200064E670E080E090E00E945E030E946C053B
:1015300062E370E080E090E00E945E03F70180814A
:10154000F2E0EF0EF11C60E00E940B0380E6E8166B
:1015500082E0F80699F7F80180810E5F1F4F60E086
:101560000E940B03F2E008331F07A9F760E087E150
:101570000E940B0360E088E10E940B0360E089E1B8
:101580000E940B0360E08FE20E940B0360E080E3A7
:101590000E940B0360E081E30E940B0360E08AE19C
:1015A0000E940B0360E08BE10E940B0360E082E38A
:1015B0000E940B0360E083E30E940B0360E08DE177
:1015C0000E940B0360E08CE10E940B0360E084E367
:1015D0000E940B0360E085E30E940B0362E370E06E
:1015E00080E090E00E945E030E946C0568EE73E06C
:1015F00080E090E0DF91CF911F910F91FF90EF90ED
:10160000DF90CF90BF90AF900C945E030C944E0689
:1016100062E370E080E590E00C94880490E080E064
:101620000E94A40390E080E00C9491030C94B70313
:1016300060E570E082E390E00C948804FC01019086
:101640000020E9F73197AF01481B590BBC0188EB2B
:1016500092E00C947001CF93DF930E941E0BEC017B
:1016600082E792E00E941E0B8C0F9D1FDF91CF91AD
:1016700008951F920F920FB60F9211240BB60F927E
:101680002F933F934F935F936F937F938F939F938A
:10169000AF93BF93EF93FF9388EB92E00E94E40136
:1016A000FF91EF91BF91AF919F918F917F916F913A
:1016B0005F914F913F912F910F900BBE0F900FBEF6
:1016C0000F901F9018951F920F920FB60F92112432
:1016D0000BB60F922F938F939F93EF93FF93E0910D
:1016E000C802F091C9028081E091CE02F091CF0250
:1016F00082FD1DC090818091D1028F5F8F732091F8
:10170000D202821741F0E091D102F0E0E854FD4F9F
:10171000958F8093D102FF91EF919F918F912F919F
:101720000F900BBE0F900FBE0F901F9018958081E9
:10173000F2CF1F920F920FB60F9211242F933F9367
:101740008F939F93AF93BF938091A9029091AA0228
:10175000A091AB02B091AC023091A80223E0230F1C
:101760002D3758F50196A11DB11D2093A802809335
:10177000A9029093AA02A093AB02B093AC0280910D
:10178000AD029091AE02A091AF02B091B00201966D
:10179000A11DB11D8093AD029093AE02A093AF0244
:1017A000B093B002BF91AF919F918F913F912F91D4
:1017B0000F900FBE0F901F90189526E8230F0296EA
:1017C000A11DB11DD2CFE8EBF2E01382128288EEA8
:1017D00093E0A0E0B0E084839583A683B78384E69A
:1017E00092E09183808385EC90E09587848784ECF8
:1017F00090E09787868780EC90E0918B808B81ECDE
:1018000090E0938B828B82EC90E0958B848B86ECBE
:1018100090E0978B868B118E128E138E148E81E141
:1018200090E090935A038093590383E090E0909363
:1018300058038093570382E090E09093560380937F
:101840005503E0E0F2E088E19BE09183808386E14C
:101850009BE0938382838EE09BE09583848308954D
:10186000CF93DF93CDB7DEB7A1970FB6F894DEBF65
:101870000FBECDBF789484B5826084BD84B581608D
:1018800084BD85B5826085BD85B5816085BD80914B
:101890006E00816080936E001092810080918100C3
:1018A00082608093810080918100816080938100BB
:1018B000809180008160809380008091B10084607D
:1018C0008093B1008091B00081608093B0008091DE
:1018D000910082608093910080919100816080935B
:1018E0009100809190008160809390008091A10090
:1018F00082608093A1008091A10081608093A1000B
:101900008091A00081608093A0008091210182607D
:101910008093210180912101816080932101809138
:10192000200181608093200180917A0084608093FF
:101930007A0080917A00826080937A0080917A00A8
:10194000816080937A0080917A00806880937A0029
:101950001092C100E091C802F091C90282E0808338
:10196000E091C402F091C5021082E091C602F091AC
:10197000C7028FEC80831092D002E091CC02F091EC
:10198000CD0286E08083E091CA02F091CB02808193
:1019900080618083E091CA02F091CB0280818860EF
:1019A0008083E091CA02F091CB02808180688083BD
:1019B000E091CA02F091CB0280818F7D808361E348
:1019C000E62E62E0F62EF70124917BEEC72E71E041
:1019D000D72EF60184918823C9F090E0880F991FD3
:1019E000FC01EE58FE4FA591B491FC01E85AFE4F60
:1019F000459154919FB7F8943C91822F8095832311
:101A00008C93FA018081282B20839FBF06E010E091
:101A1000802FF801E451FE4F9491F801EA55FE4FF2
:101A20002491222399F030E0220F331FF901EE5860
:101A3000FE4FA591B491F901E85AFE4F25913491DA
:101A40002FB7F894EC919E2B9C932FBF61E00E94DE
:101A50000B030F5F1F4F06331105D1F690E080E0B6
:101A60000E94CF0D8093B10285E792E00E942B0B7C
:101A700027E7A22E22E0B22E3AE0432E512C612C11
:101A8000712C65E070E080E090E00E945E03F5015B
:101A90008491F7011491F6010491002309F477C0B1
:101AA00081110E94A402E02FF0E0EE0FFF1FE45727
:101AB000FE4FA591B4918C91182331E020E009F4F8
:101AC00030E0832F922F9093B5028093B40220913F
:101AD000B2023091B3022817390709F442C0892BAA
:101AE00009F058C06091B1026F5F63706093B102FA
:101AF00090E080E00E94D70D0E946C051092B70222
:101B00001092B60286E892E00E942B0B89E892E0E0
:101B10000E941E0B2091B10230E050E040E019A27B
:101B20008E010F5D1F4FCA01B901A30192010E94EE
:101B3000900F605DF80162938F0121153105410519
:101B4000510589F7309719F0CF010E941E0B82E7EB
:101B500092E00E941E0B65E070E080E090E00E9441
:101B60005E038091B4029091B5029093B30280938A
:101B7000B202E091B102F0E0EE0FFF1FE050FE4F25
:101B80000190F081E02D19950E9473027ACF90E0C8
:101B900080E099CF83EA92E00E942B0BDCCFF99989
:101BA000FECF92BD81BDF89A992780B50895262F62
:101BB000F999FECF1FBA92BD81BD20BD0FB6F89432
:101BC000FA9AF99A0FBE019608955058BB27AA2792
:101BD0000E94FD0D0C94D50E0E94C70E38F00E9495
:101BE000CE0E20F039F49F3F19F426F40C94C40E65
:101BF0000EF4E095E7FB0C94BE0EE92F0E94E60E72
:101C000058F3BA17620773078407950720F079F431
:101C1000A6F50C94080F0EF4E0950B2EBA2FA02D0C
:101C20000B01B90190010C01CA01A0011124FF2789
:101C3000591B99F0593F50F4503E68F11A16F04084
:101C4000A22F232F342F4427585FF3CF4695379583
:101C50002795A795F0405395C9F77EF41F16BA0B48
:101C6000620B730B840BBAF09150A1F0FF0FBB1FF6
:101C7000661F771F881FC2F70EC0BA0F621F731F3F
:101C8000841F48F4879577956795B795F7959E3F9C
:101C900008F0B0CF9395880F08F09927EE0F97952D
:101CA000879508950E94EE0E88F09F5798F0B92FFF
:101CB0009927B751B0F0E1F0660F771F881F991F81
:101CC0001AF0BA95C9F714C0B13091F00E94080F0C
:101CD000B1E008950C94080F672F782F8827B85F1C
:101CE00039F0B93FCCF3869577956795B395D9F7D9
:101CF0003EF490958095709561957F4F8F4F9F4FE3
:101D00000895E89409C097FB3EF4909580957095EE
:101D100061957F4F8F4F9F4F9923A9F0F92F96E937
:101D2000BB279395F695879577956795B795F111AC
:101D3000F8CFFAF4BB0F11F460FF1BC06F5F7F4F49
:101D40008F4F9F4F16C0882311F096E911C077235B
:101D500021F09EE8872F762F05C0662371F096E864
:101D6000862F70E060E02AF09A95660F771F881F33
:101D7000DAF7880F9695879597F9089597F99F67F1
:101D800080E870E060E008959FEF80EC0895002403
:101D90000A941616170618060906089500240A94D0
:101DA00012161306140605060895092E0394000C56
:101DB00011F4882352F0BB0F40F4BF2B11F460FFE5
:101DC00004C06F5F7F4F8F4F9F4F089557FD90580E
:101DD000440F551F59F05F3F71F04795880F97FBEF
:101DE000991F61F09F3F79F08795089512161306A9
:101DF0001406551FF2CF4695F1DF08C016161706D8
:101E00001806991FF1CF869571056105089408950C
:101E1000E894BB2766277727CB0197F908950E949E
:101E2000220F0C94D50E0E94C70E38F00E94CE0EE1
:101E300020F0952311F00C94BE0E0C94C40E1124C6
:101E40000C94090F0E94E60E70F3959FC1F3950F55
:101E500050E0551F629FF001729FBB27F00DB11D2E
:101E6000639FAA27F00DB11DAA1F649F6627B00DBE
:101E7000A11D661F829F2227B00DA11D621F739FA7
:101E8000B00DA11D621F839FA00D611D221F749FB5
:101E90003327A00D611D231F849F600D211D822FFC
:101EA000762F6A2F11249F5750409AF0F1F0882323
:101EB0004AF0EE0FFF1FBB1F661F771F881F915050
:101EC0005040A9F79E3F510580F00C94BE0E0C9433
:101ED000090F5F3FE4F3983ED4F3869577956795B5
:101EE000B795F795E7959F5FC1F7FE2B880F911D7A
:101EF0009695879597F9089597FB072E16F4009409
:101F000007D077FD09D00E94BA0F07FC05D03EF438
:101F1000909581959F4F0895709561957F4F089595
:101F2000A1E21A2EAA1BBB1BFD010DC0AA1FBB1FDD
:101F3000EE1FFF1FA217B307E407F50720F0A21B4F
:101F4000B30BE40BF50B661F771F881F991F1A94BC
:101F500069F760957095809590959B01AC01BD01E6
:101F6000CF010895EE0FFF1F881F8BBF0790F691DA
:101F7000E02D1994AA1BBB1B51E107C0AA1FBB1F70
:101F8000A617B70710F0A61BB70B881F991F5A9505
:101F9000A9F780959095BC01CD010895F894FFCFE5
:101FA0000000000000006C05320033001A001B0026
:101FB0002F00300031001E001F00200021002200F1
:101FC00023002400250026002700280029002A00DD
:101FD0002B002C002D002E00170018001900060001
:101FE0000700080009000A000B000C000D000E009D
:101FF0000F0010001100120013001400150016004D
:1020000000000000060270019D015302CE01AC01E8
:10201000C0010D0A003C534554555020434F4D50CC
:102020004C4554453E006F6E006E756D62657220C2
:102030006F6620627574746F6E2070757368657357
:082040003A20006F6666000003
:020000040003F7
:10E000000D9489F10D94B2F10D94B2F10D94B2F129
:10E010000D94B2F10D94B2F10D94B2F10D94B2F1F0
:10E020000D94B2F10D94B2F10D94B2F10D94B2F1E0
:10E030000D94B2F10D94B2F10D94B2F10D94B2F1D0
:10E040000D94B2F10D94B2F10D94B2F10D94B2F1C0
:10E050000D94B2F10D94B2F10D94B2F10D94B2F1B0
:10E060000D94B2F10D94B2F10D94B2F10D94B2F1A0
:10E070000D94B2F10D94B2F10D94B2F10D94B2F190
:10E080000D94B2F10D94B2F10D94B2F10D94B2F180
:10E090000D94B2F10D94B2F10D94B2F10D94B2F170
:10E0A0000D94B2F10D94B2F10D94B2F10D94B2F160
:10E0B0000D94B2F10D94B2F10D94B2F10D94B2F150
:10E0C0000D94B2F10D94B2F10D94B2F10D94B2F140
:10E0D0000D94B2F10D94B2F10D94B2F10D94B2F130
:10E0E0000D94B2F141546D656761323536300041AF
:10E0F000726475696E6F206578706C6F72657220DE
:10E1000073746B3530305632206279204D4C530099
:10E11000426F6F746C6F616465723E004875683F52
:10E1200000436F6D70696C6564206F6E203D200048
:10E130004350552054797065202020203D20005FF9
:10E140005F4156525F415243485F5F3D2000415658
:10E1500052204C696243205665723D20004743437C
:10E160002056657273696F6E203D20004350552024
:10E1700049442020202020203D20004C6F7720663D
:10E18000757365202020203D20004869676820665F
:10E190007573652020203D200045787420667573D6
:10E1A00065202020203D20004C6F636B2066757336
:10E1B000652020203D20004D617220203720323024
:10E1C000313300312E362E3800342E332E350056A2
:10E1D00023202020414444522020206F7020636F70
:10E1E00064652020202020696E73747275637469E1
:10E1F0006F6E2061646472202020496E74657272B3
:10E20000757074006E6F20766563746F7200726A49
:10E210006D702020006A6D70200057686174207056
:10E220006F72743A00506F7274206E6F7420737541
:10E2300070706F72746564004D7573742062652030
:10E2400061206C6574746572002000577269747483
:10E25000696E672045450052656164696E672045B7
:10E26000450045452065727220636E743D00504F35
:10E27000525400303D5A65726F2061646472003FF1
:10E280003D43505520737461747300403D454550C3
:10E29000524F4D207465737400423D426C696E6B41
:10E2A000204C454400453D44756D70204545505215
:10E2B0004F4D00463D44756D7020464C415348001B
:10E2C000483D48656C70004C3D4C69737420492F83
:10E2D0004F20506F72747300513D51756974005234
:10E2E0003D44756D702052414D00563D73686F7707
:10E2F00020696E7465727275707420566563746FF0
:10E30000727300593D506F727420626C696E6B00BD
:10E310002A0011241FBECFEFD1E2DEBFCDBF01E046
:10E320000CBF12E0A0E0B2E0EEE1FDEF03E00BBFB6
:10E3300002C007900D92A030B107D9F712E0A0E01B
:10E34000B2E001C01D92AE30B107E1F70F9460F367
:10E350000D948DFE01E20EBF0FEF0DBF11241FBE05
:10E360000D9460F30D9400F020E030E040ED57E0B4
:10E3700005C0FA013197F1F72F5F3F4F2817390792
:10E38000C0F308959C01260F311DC901A0E0B0E043
:10E390002F5F3F4FABBFFC018791882361F08093D3
:10E3A000C6008091C00086FFFCCF8091C0008064D1
:10E3B0008093C000EACF08958DE08093C6008091DD
:10E3C000C00086FFFCCF8091C00080648093C000B5
:10E3D0008AE08093C6008091C00086FFFCCF8091C8
:10E3E000C00080648093C00008950F94C2F10F9420
:10E3F000DCF10895FC019081992359F09093C600B7
:10E400008091C00086FFFCCF8091C0008064809323
:10E41000C0003196992379F70895282F982F929567
:10E420009F70892F805D8A3308F0895F8093C600D2
:10E430008091C00086FFFCCF8091C00080648093F3
:10E44000C000822F8F70982F905D9A3308F0995FEB
:10E450009093C6008091C00086FFFCCF8091C000E1
:10E4600080648093C00008959C01FB01853691056E
:10E470001CF46330710594F0C90164E670E00F94F8
:10E480002EFE605D7F4F6093C6008091C00086FFC6
:10E49000FCCF8091C00080648093C0002B30310598
:10E4A00014F43297B4F0C90164E670E00F942EFEC4
:10E4B0006AE070E00F942EFE605D7F4F6093C600AF
:10E4C0008091C00086FFFCCF8091C0008064809363
:10E4D000C000C9016AE070E00F942EFEC0968093E0
:10E4E000C6008091C00086FFFCCF8091C000806490
:10E4F0008093C00008951F93182F8EE692EE60E07F
:10E500000F94C2F11093C6008091C00086FFFCCF2B
:10E510008091C00080648093C0000F94DCF11F9153
:10E5200008952F923F924F925F926F927F928F92B7
:10E530009F92AF92BF92CF92DF92EF92FF920F9392
:10E540001F93DF93CF93CDB7DEB762970FB6F894E2
:10E55000DEBF0FBECDBF382E622ECA01DB015C01CB
:10E560006D01772420E2222E2E010894411C511CBB
:10E570008BC081E0A81680E0B80681E0C80680E084
:10E58000D80628F0C601AA27BB270F940DF2BB2797
:10E59000AD2D9C2D8B2D0F940DF28A2D0F940DF225
:10E5A0002092C6008091C00086FFFCCF8091C00001
:10E5B00080648093C0009DE29093C6008091C0006B
:10E5C00086FFFCCF8091C00080648093C0002092C1
:10E5D000C6008091C00086FFFCCF8091C00080649F
:10E5E0008093C00019828601750188249924A1E0D6
:10E5F0003A1651F03A1620F0B2E03B1661F409C029
:10E600000BBFF701779007C0C7010F9477FE782EF4
:10E6100002C0F7017080872D0F940DF22092C60082
:10E620008091C00086FFFCCF8091C0008064809301
:10E63000C000872D8052F401EF70F0708F3520F408
:10E64000E40DF51D708204C0E40DF51D8EE280839B
:10E650000894E11CF11C011D111D0894811C911CE2
:10E6600090E18916910409F0C2CF80E190E0A0E02A
:10E67000B0E0A80EB91ECA1EDB1E198AC2010F9493
:10E68000FAF10F94DCF16A94662009F072CF629679
:10E690000FB6F894DEBF0FBECDBFCF91DF911F91B3
:10E6A0000F91FF90EF90DF90CF90BF90AF909F9031
:10E6B0008F907F906F905F904F903F902F90089534
:10E6C0002F923F924F925F926F927F928F929F9282
:10E6D000AF92BF92CF92DF92EF92FF920F931F9370
:10E6E000DF93CF93CDB7DEB7CD53D1400FB6F894BB
:10E6F000DEBF0FBECDBF01E20EBF0FEF0DBF94B75F
:10E70000F894A89514BE80916000886180936000A1
:10E7100010926000789493FF05C0E0910002F091A0
:10E7200001021995279A2F9A8091C00082608093E8
:10E73000C00080E18093C40088E18093C1000000A4
:10E74000EE24FF24870144E0A42EB12CCC24DD2448
:10E7500024C0C5010197F1F70894E11CF11C011DCB
:10E76000111D21E2E2162EE4F20620E0020720E06D
:10E77000120718F031E0C32ED12CC801B70127ECE5
:10E780003BE140E050E00F9441FE611571058105C9
:10E79000910519F485B1805885B98091C00087FD35
:10E7A00003C0C114D104A9F2A6014F5F5F4FC25E3E
:10E7B000DE4F59834883CE51D140C25EDE4F8881FF
:10E7C0009981CE51D140019711F00D9410FEC05D9A
:10E7D000DE4F19821882C053D14060E0C15DDE4F28
:10E7E0001882CF52D14088249924C35DDE4F19820C
:10E7F0001882CD52D140C05EDE4F188219821A8233
:10E800001B82C052D140CE5CDE4F188219821A8220
:10E810001B82C253D140EE24FF2487010BBFF701B6
:10E8200007911691C45CDE4F19830883CC53D14005
:10E830000D940BFEC25EDE4F28813981CE51D1404E
:10E840002130310509F52091C600C25EDE4F1982E4
:10E850001882CE51D14022C02F5F3F4F4F4F5F4FA4
:10E86000213082E138078AE7480780E0580780F0C6
:10E87000C45CDE4FE881F981CC53D140EF5FFF4F9C
:10E8800019F0EE27FF27099420E030E040E050E047
:10E890008091C00087FFE0CF2091C600C35DDE4FAE
:10E8A00048815981CD52D1404F5F5F4FC35DDE4FEC
:10E8B00059834883CD52D140213209F063C64A3092
:10E8C000510508F05FC60894811C911C53E0851621
:10E8D000910409F059C600E010E018C081E280936D
:10E8E000C6008091C00086FFFCCF8091C00080648C
:10E8F0008093C0002F5F3F4F2931310579F70F9486
:10E90000DCF10F5F1F4F0530110519F020E030E0FA
:10E91000E5CF10920A0210920B0210920C02109294
:10E920000D02109206021092070210920802109235
:10E930000902109202021092030210920402109235
:10E9400005028FEE90EE60E00F94F5F180E191EE1C
:10E9500060E00F94C2F18091C00087FFFCCF9091DE
:10E96000C600903608F09F759032B8F09093C600BC
:10E970008091C00086FFFCCF8091C00080648093AE
:10E98000C000A0E2A093C6008091C00086FFFCCF2B
:10E990008091C00080648093C000983409F4D7C18E
:10E9A0009934B8F4923409F459C1933458F490333B
:10E9B00019F1903308F4E3C59F33A1F1903409F0C5
:10E9C000DEC5BDC0953409F470C1963409F0D7C5D1
:10E9D00098C1923509F42BC2933538F49C3409F46C
:10E9E000F5C1913509F0CBC518C2963509F445C279
:10E9F000993509F0C4C567C483E792EE62E00F94CD
:10EA0000F5F110920602109207021092080210927D
:10EA1000090210920A0210920B0210920C0210923C
:10EA20000D0213C18FE792EE62E00F94F5F18FEEC5
:10EA300090EE60E00F94F5F181E291EE60E00F94CA
:10EA4000C2F187EB91EE60E00F94F5F180E391EE77
:10EA500060E00F94C2F184EE90EE60E00F94F5F167
:10EA60008FE391EE60E00F94C2F186E090E061E008
:10EA700070E00F9434F20F94DCF18DE591EE60E0DC
:10EA80000F94C2F189EC91EE60E00F94F5F18EE401
:10EA900091EE60E00F94C2F183EC91EE60E00F9490
:10EAA000F5F18CE691EE60E00F94C2F18EE10F94E7
:10EAB0000DF288E90F940DF281E00F940DF20F949E
:10EAC000DCF18BE791EE60E00F94C2F119E0E0E039
:10EAD000F0E010935700E4918E2F0F940DF20F94F5
:10EAE000DCF18AE891EE60E00F94C2F1E3E0F0E03F
:10EAF00010935700E4918E2F0F940DF20F94DCF1D8
:10EB000089E991EE60E00F94C2F1E2E0F0E0109349
:10EB10005700E4918E2F0F940DF20F94DCF188EAE8
:10EB200091EE60E00F94C2F1E1E0F0E01093570045
:10EB30001491812F0F940DF20F94DCF107CF8BE825
:10EB400092EE62E00F94F5F18BE492EE60E00F94A8
:10EB5000F5F10F94DCF100E010E019C0C8016F2D51
:10EB60000F947FFEFF2031F489E492EE60E00F9471
:10EB7000C2F10BC0F092C6008091C00086FFFCCFAE
:10EB80008091C00080648093C0000F5F1F4FC80158
:10EB900081519F41A0E0B0E0ABBFFC01F790BAE229
:10EBA000FB1621F0E2E000301E07C1F60F94DCF105
:10EBB0000F94DCF187E592EE60E00F94F5F10F948D
:10EBC000DCF1CC24DD2400E010E01EC0C8010F946D
:10EBD00077FEF82E882331F489E492EE60E00F94FA
:10EBE000C2F10BC08093C6008091C00086FFFCCFAD
:10EBF0008091C00080648093C000FE1419F00894D6
:10EC0000C11CD11C0F5F1F4FC80181519F41A0E063
:10EC1000B0E0ABBFFC01E790FAE2EF1621F022E092
:10EC20000030120799F60F94DCF10F94DCF182E6C4
:10EC300092EE60E00F94C2F1C60161E070E00F94C3
:10EC400034F20F94DCF10F94DCF110920202109276
:10EC50000302109204021092050278CE89E992EE26
:10EC600062E00F94F5F1279A2F9A16C02F9880E052
:10EC700090E0E0EDF7E03197F1F7019684369105E9
:10EC8000C1F72F9A80E090E0E0EDF7E03197F1F7DF
:10EC9000019684369105C1F78091C00087FFE6CFC9
:10ECA0008091C00087FFFCCF64C485EA92EE62E0E9
:10ECB0000F94F5F140910202509103026091040219
:10ECC0007091050281E020E10F9491F2809102029F
:10ECD00090910302A0910402B091050280509F4FD1
:10ECE000AF4FBF4F8093020290930302A0930402A0
:10ECF000B093050280509041A040B04008F426CE69
:10ED0000A4CF83EB92EE62E00F94F5F140910602FE
:10ED100050910702609108027091090280E020E1A1
:10ED20000F9491F28091060290910702A09108023F
:10ED3000B091090280509F4FAF4FBF4F80930602A2
:10ED400090930702A0930802B0930902FFCD80ECD4
:10ED500092EE62E00F94F5F183E792EE60E00F949B
:10ED6000F5F18FE792EE60E00F94F5F18BE892EE0B
:10ED700060E00F94F5F189E992EE60E00F94F5F10F
:10ED800085EA92EE60E00F94F5F183EB92EE60E09D
:10ED90000F94F5F180EC92EE60E00F94F5F187ECC2
:10EDA00092EE60E00F94F5F188ED92EE60E00F9442
:10EDB000F5F18FED92EE60E00F94F5F18AEE92EEB0
:10EDC00060E00F94F5F183E093EEBDCD87EC92EE19
:10EDD00062E00F94F5F181E40F947BF282E40F94EA
:10EDE0007BF283E40F947BF284E40F947BF285E45E
:10EDF0000F947BF286E40F947BF287E40F947BF20E
:10EE000088E40F947BF28AE40F947BF28BE40F94F6
:10EE10007BF28CE40F947BF299CD88ED92EE62E068
:10EE20000F94F5F1772473948824992409C48FED05
:10EE300092EE62E00F94F5F140910A0250910B02BC
:10EE400060910C0270910D0282E020E10F9491F22A
:10EE500080910A0290910B02A0910C02B0910D02D8
:10EE600080509F4FAF4FBF4F80930A0290930B0289
:10EE7000A0930C02B0930D0269CD8AEE92EE62E08F
:10EE80000F94F5F184EE90EE60E00F94F5F18FECC5
:10EE900091EE60E00F94F5F1662477244301CC5D98
:10EEA000DE4F19821882C452D140D401C301B695F5
:10EEB000A79597958795CA5DDE4F88839983AA8326
:10EEC000BB83C652D140CC5DDE4FA881B981C4520C
:10EED000D1401196CC5DDE4FB983A883C452D14096
:10EEE000CD0162E070E00F9434F2B0E2B093C6005E
:10EEF0008091C00086FFFCCF8091C0008064809329
:10EF0000C000EDE2E093C6008091C00086FFFCCF18
:10EF10008091C00080648093C000F0E2F093C6004E
:10EF20008091C00086FFFCCF8091C00080648093F8
:10EF3000C000CA5DDE4FE880F9800A811B81C6529D
:10EF4000D140BB27A12F902F8F2D0F940DF2CA5DBA
:10EF5000DE4F8881C652D1400F940DF2B0E2FB2EF5
:10EF6000F092C6008091C00086FFFCCF8091C00067
:10EF700080648093C0000DE30093C6008091C000C0
:10EF800086FFFCCF8091C00080648093C00010E2B7
:10EF90001093C6008091C00086FFFCCF8091C00016
:10EFA00080648093C0008BBEF3012791C65DDE4F65
:10EFB0002883CA52D140A22EBB24CC24DD2408943D
:10EFC000611C711C811C911C8BBEF3018791282E42
:10EFD0003324442455240894611C711C811C911C09
:10EFE0008BBEF3013791C55DDE4F3883CB52D140E4
:10EFF0000894611C711C811C911C8BBEF30147910C
:10F00000C45DDE4F4883CC52D140ADEFEA2EAFEF66
:10F01000FA2EAFEF0A2FAFEF1A2F6E0C7F1C801E57
:10F02000911E142D032DF22CEE24EA0CFB1C0C1D5A
:10F030001D1D0F940DF220E22093C6008091C000A8
:10F0400086FFFCCF8091C00080648093C000C65DC5
:10F05000DE4F8881CA52D1400F940DF230E23093D6
:10F06000C6008091C00086FFFCCF8091C000806404
:10F070008093C000C45DDE4F8881CC52D1400F9494
:10F080000DF240E24093C6008091C00086FFFCCFA5
:10F090008091C00080648093C000C55DDE4F888190
:10F0A000CB52D1400F940DF250E25093C6008091A4
:10F0B000C00086FFFCCF8091C00080648093C000B8
:10F0C0008FEFE8168FEFF80680E0080780E018075A
:10F0D00031F484E092EE60E00F94C2F1DFC0D80119
:10F0E000C7018070907CA070B0708050904CA040A0
:10F0F000B040D1F52FEF3FE340E050E0E222F322B1
:10F1000004231523CA5DDE4FA880B980CA80DB8046
:10F11000C652D140AE0CBF1CC01ED11EAA0CBB1CD7
:10F12000CC1CDD1C8EE092EE60E00F94C2F1BB2798
:10F13000A12F902F8F2D0F940DF28E2D0F940DF285
:10F1400030E23093C6008091C00086FFFCCF8091F2
:10F15000C00080648093C0004EE34093C60080915D
:10F16000C00086FFFCCF87C08EE09EEFA0E0B0E03D
:10F17000E822F9220A231B239CE0E91694E9F90608
:10F1800090E0090790E0190709F088C0C45DDE4FE0
:10F19000A881CC52D140EA2EFF2400E010E0102FCD
:10F1A0000F2DFE2CEE24C55DDE4FB881CB52D14031
:10F1B000EB0EF11C011D111DD601C501817090706F
:10F1C000A070B070DC0199278827E80EF91E0A1F8D
:10F1D0001B1F20EF30E040E050E0A222B322C42207
:10F1E000D52241E1AA0CBB1CCC1CDD1C4A95D1F7F1
:10F1F000EA0CFB1C0C1D1D1D81E090E0A0E0B0E0BE
:10F20000282239224A225B2235E1220C331C441C7D
:10F21000551C3A95D1F7E20CF31C041D151D57013E
:10F220006801AA0CBB1CCC1CDD1C85E192EE60E0E1
:10F230000F94C2F1C801AA27BB270F940DF2BB2778
:10F24000A12F902F8F2D0F940DF28E2D0F940DF274
:10F2500090E29093C6008091C00086FFFCCF809121
:10F26000C00080648093C000AEE3A093C60080918C
:10F27000C00086FFFCCF8091C00080648093C000F6
:10F28000C601AA27BB270F940DF2BB27AD2D9C2DDD
:10F290008B2D0F940DF28A2D0F940DF20F94DCF14B
:10F2A000CC5DDE4FE881F981C452D140F99709F471
:10F2B0004DCBF4E0EF2EF12C012D112D6E0C7F1CA7
:10F2C000801E911EF2CD83E093EE62E00F94F5F183
:10F2D0008AE192EE60E00F94C2F18091C00087FF56
:10F2E000FCCF1091C6001F751093C6008091C0001E
:10F2F00086FFFCCF8091C00080648093C0000F9493
:10F30000DCF1812F81548A3108F036C1163409F4BA
:10F3100095C0173490F4133409F44EC0143430F40B
:10F320001134F1F0123409F01DC130C0143409F465
:10F3300059C0153409F016C16BC01A3409F4C4C0A1
:10F340001B3438F4173409F48FC0183409F00AC19B
:10F35000A1C01B3409F4D2C01C3409F003C1E8C0B9
:10F360008FEF81B90DC082B1809582B980E090E0C5
:10F37000E0EDF7E03197F1F70196883C9105C1F790
:10F380008091C00087FFEFCF12B8EFC08FEF84B934
:10F390000DC085B1809585B980E090E0E0EDF7E0A3
:10F3A0003197F1F70196883C9105C1F78091C00033
:10F3B00087FFEFCF15B8D9C08FEF87B90DC088B1DF
:10F3C000809588B980E090E0E0EDF7E03197F1F7C3
:10F3D0000196883C9105C1F78091C00087FFEFCF6F
:10F3E00018B8C3C08FEF8AB90DC08BB180958BB9A7
:10F3F00080E090E0E0EDF7E03197F1F70196883C8E
:10F400009105C1F78091C00087FFEFCF1BB8ADC059
:10F410008FEF8DB90DC08EB180958EB980E090E0F0
:10F42000E0EDF7E03197F1F70196883C9105C1F7DF
:10F430008091C00087FFEFCF1EB897C08FEF80BBD1
:10F440000DC081B3809581BB80E090E0E0EDF7E0F6
:10F450003197F1F70196883C9105C1F78091C00082
:10F4600087FFEFCF11BA81C08FEF83BB0DC084B38C
:10F47000809584BB80E090E0E0EDF7E03197F1F714
:10F480000196883C9105C1F78091C00087FFEFCFBE
:10F4900014BA6BC08FEF809301010FC080910201FD
:10F4A00080958093020180E090E0E0EDF7E03197F5
:10F4B000F1F70196883C9105C1F78091C00087FF64
:10F4C000EDCF1092020151C08FEF809304010FC065
:10F4D0008091050180958093050180E090E0E0ED4A
:10F4E000F7E03197F1F70196883C9105C1F78091DB
:10F4F000C00087FFEDCF1092050137C08FEF8093DA
:10F5000007010FC08091080180958093080180E079
:10F5100090E0E0EDF7E03197F1F70196883C910536
:10F52000C1F78091C00087FFEDCF109208011DC088
:10F530008FEF80930A010FC080910B01809580931B
:10F540000B0180E090E0E0EDF7E03197F1F70196F4
:10F55000883C9105C1F78091C00087FFEDCF1092E4
:10F560000B0103C085E292EEEEC98091C00087FFD7
:10F57000FCCF8091C600EAC988E392EEE4C98CE131
:10F5800091EEE1C988249924933011F1943028F444
:10F59000913089F09230B8F408C0953061F195301F
:10F5A000F0F0963009F048C043C02B3109F042C951
:10F5B00091E06BE13FC96227C15DDE4F2883CF52E6
:10F5C000D14092E037C9B22FA0E0622793E032C960
:10F5D000822F90E0A82BB92B622794E02BC92E3004
:10F5E00009F039C3622795E0C05DDE4F19821882A9
:10F5F000C053D1401FC9E1E0F0E0EC0FFD1FC05D3A
:10F60000DE4F08811981C053D140E00FF11F2083E4
:10F610000F5F1F4FC05DDE4F19830883C053D14079
:10F6200062270A171B0709F005C9D80196E002C92D
:10F63000261709F010C303C0973009F0FBC87724E0
:10F640009981933109F412C19431C8F4963009F4C8
:10F65000D8C0973050F4923009F406C1933009F4C1
:10F660006DC0913009F059C253C0913109F477C08F
:10F67000923108F0BBC0903109F04FC2F5C098310B
:10F6800009F487C0993150F4953109F4EFC09531F0
:10F6900008F4C6C1963109F040C2C2C19A3109F4DA
:10F6A0006CC09A3108F491C09B3109F45BC09D3164
:10F6B00009F033C29D81903359F48F81882311F46E
:10F6C0009EE11CC0813011F091E018C098E916C08D
:10F6D000892F807591F0903539F4E0E0F0E089E011
:10F6E0008093570094910AC0983539F4E3E0F0E034
:10F6F00089E080935700949101C090E01A821B82A8
:10F700008D818C831D829E831F8227E030E009C299
:10F710001A8288E08B8381E48C8386E58D8382E581
:10F720008E8389E48F8383E5888780E589878FE5E9
:10F730008A8782E38B872BE030E0F3C18A818139AD
:10F7400041F0823941F0803911F48FE005C080E04A
:10F7500003C082E001C08AE01A828B8344C0772410
:10F76000739482C08D81882311F48EE12CC0813086
:10F7700011F081E028C088E926C01A82E1E0F0E0BB
:10F7800089E08093570084918B831C8224E030E0D1
:10F79000C8C18B81803589F48C81883039F4E2E0EE
:10F7A000F0E089E08093570084910DC0E0E0F0E044
:10F7B00089E080935700849106C0E3E0F0E089E09F
:10F7C0008093570084911A82DFCF8D81836C99E0FA
:10F7D000E1E0F0E0082E90935700E89507B600FCB2
:10F7E000FDCF1A821B8223E030E09BC180EC8A832C
:10F7F000CE5CDE4F188219821A821B82C253D1401E
:10F800008EC18A8190E0A0E0B0E0582F44273327D2
:10F8100022278B8190E0A0E0B0E0DC0199278827C7
:10F82000282B392B4A2B5B2B8D8190E0A0E0B0E098
:10F83000282B392B4A2B5B2B8C8190E0A0E0B0E089
:10F84000BA2FA92F982F8827282B392B4A2B5B2BCF
:10F85000220F331F441F551FC05EDE4F288339839C
:10F860004A835B83C052D1401A8259C13A81C95C34
:10F87000DE4F3883C753D140CA5CDE4F1882C6536F
:10F88000D1408B81C82EDD24CA5CDE4F488159816E
:10F89000C653D140C42AD52A933109F082C0CE5C28
:10F8A000DE4F88819981AA81BB81C253D1408050AB
:10F8B000904CA340B04030F583E0CE5CDE4FE88052
:10F8C000F9800A811B81C253D140F70100935B008C
:10F8D00080935700E89507B600FCFDCFCE5CDE4F65
:10F8E000088119812A813B81C253D14000501F4FAA
:10F8F0002F4F3F4FCE5CDE4F088319832A833B8313
:10F90000C253D140C05EDE4F488159816A817B81FC
:10F91000C052D140DE011B9631E08C9111962C91A2
:10F9200011971296C75CDE4F2883C953D140C85C3B
:10F93000DE4F1882C853D14090E0C85CDE4FE881AA
:10F94000F981C853D1408E2B9F2B0C01FA01609393
:10F950005B0030935700E89511244E5F5F4F6F4F67
:10F960007F4F0EEFE02E0FEFF02ECE0CDF1CC114F8
:10F97000D10499F685E0C05EDE4F088119812A81A5
:10F980003B81C052D140F80120935B008093570027
:10F99000E89507B600FCFDCF81E180935700E8951C
:10F9A00035C0C05EDE4F88819981AA81BB81C0527B
:10F9B000D140B695A795979587957C018601ABE0D8
:10F9C000AA2EB12CAC0EBD1E0BC0D5016D915D01F0
:10F9D000C7010F947FFE0894E11CF11C01501040F8
:10F9E0000115110591F7A60160E070E0440F551F65
:10F9F000661F771FC05EDE4FE880F9800A811B8199
:10FA0000C052D1404E0D5F1D601F711F1A82C05E33
:10FA1000DE4F488359836A837B83C052D1407FC0C5
:10FA2000FA80C55CDE4FF882CB53D140C65CDE4F16
:10FA30001882CA53D1408B81C82EDD24C65CDE4FAC
:10FA400008811981CA53D140C02AD12A1A828981DA
:10FA5000BE016D5F7F4F843121F59601C05EDE4FA0
:10FA6000E880F9800A811B81C052D1400BBFF701A9
:10FA700087919691DB018C9311969C936E5F7F4FDB
:10FA8000D801C7010296A11DB11DC05EDE4F88835B
:10FA90009983AA83BB83C052D14022503040F1F6F3
:10FAA00036C0C05EDE4F288139814A815B81C052F9
:10FAB000D1400894C108D108760100E010E0089414
:10FAC000C11CD11C0894E11CF11C011D111DE20E8A
:10FAD000F31E041F151F21BDBB27A52F942F832FB5
:10FAE00082BD2F5F3F4F4F4F5F4FF89A80B5DB01CC
:10FAF0008D93BD012E153F054007510761F7C05E8C
:10FB0000DE4F288339834A835B83C052D1409601FC
:10FB10002D5F3F4FFB01108204C080EC8A8322E0FE
:10FB200030E08BE18093C6008091C00086FFFCCF5F
:10FB30008091C00080648093C000C15DDE4FF88179
:10FB4000CF52D140F093C6008091C00086FFFCCF19
:10FB50008091C00080648093C000432F3093C60022
:10FB60008091C00086FFFCCF8091C00080648093AC
:10FB7000C000922F2093C6008091C00086FFFCCF6A
:10FB80008091C00080648093C0008EE08093C600A6
:10FB90008091C00086FFFCCF8091C000806480937C
:10FBA000C00065E1C15DDE4FE880CF52D1406E25D7
:10FBB00069276427FE01319610C090819093C6009A
:10FBC0008091C00086FFFCCF31968091C000806498
:10FBD0008093C0006927215030402115310569F715
:10FBE0006093C6008091C00086FFFCCF8091C0006A
:10FBF00080648093C00085B1805885B9772081F4F6
:10FC0000C15DDE4F0881CF52D1400F5FC15DDE4F35
:10FC10000883CF52D14090E0A0E0B0E00D941AF4F8
:10FC200027982F9880E090E020ED37E0F901319798
:10FC3000F1F7019684369105C9F700008091C00064
:10FC40008D7F8093C00081E180935700E895EE2777
:10FC5000FF270994FFCF90E00D941AF497FB092E2B
:10FC600007260AD077FD04D02ED006D000201AF443
:10FC7000709561957F4F0895F6F7909581959F4F08
:10FC80000895A1E21A2EAA1BBB1BFD010DC0AA1FDD
:10FC9000BB1FEE1FFF1FA217B307E407F50720F0F5
:10FCA000A21BB30BE40BF50B661F771F881F991F70
:10FCB0001A9469F760957095809590959B01AC01B9
:10FCC000BD01CF010895AA1BBB1B51E107C0AA1FAC
:10FCD000BB1FA617B70710F0A61BB70B881F991FED
:10FCE0005A95A9F780959095BC01CD010895F99991
:10FCF000FECF92BD81BDF89A992780B50895262F31
:10FD0000F999FECF1FBA92BD81BD20BD0FB6F89400
:0EFD1000FA9AF99A0FBE01960895F894FFCF63
:00000001FF
