:100000000C942A010C9404080C94D9070C94AE07A4
:100010000C9483070C9458070C942D070C9402073A
:100020000C94D7060C945B010C945B010C945B015F
:100030000C945B010C945B010C945B010C945B01D0
:100040000C945B010C945B010C945B010C945B01C0
:100050000C945B010C945B010C945B010C948D0679
:100060000C945B010C9457060C942D060C945B01C8
:100070000C945B010C945B010C945B010C945B0190
:100080000C945B010C945B010C945B010C945B0180
:100090000C945B010C945B010C945B010C945B0170
:1000A0000C945B010C945B010C945B010C945B0160
:1000B0000C945B010C945B010C945B010C945B0150
:1000C0000C945B010C945B010C945B010C945B0140
:1000D0000C945B010C945B010C945B010C945B0130
:1000E0000C945B010C94BB010C942F080C948A01B6
:1000F0000C9417030C94E4020C94F1020C94FB0290
:100100000C94AD010C94ED020C9409030C940503BE
:100110000C9499010C9440020C94DC020C94E002C3
:100120000C945D010C9413030C94F7020C94E702F9
:100130000C94F3010C9442030C940D030C94FF02F5
:100140000C94C6020C94D8020C94C10200000A0B55
:1001500002090C0D0E080703040100000000000056
:10016000000000000000000000000000000000008F
:10017000000000000000000012111000000000004C
:10018000000000000000000000000000000000006F
:10019000000000002200250028002B002E00310066
:1001A000340002010000050108010B0100002100DC
:1001B000240027002A002D00300033000101000038
:1001C000040107010A0105050505070508080808D7
:1001D000020202020A0A08080404040401010101DF
:1001E00001010101030303030303030304070707DA
:1001F0000C0C0C0C0C0C0C0C02020202060606067F
:10020000060606060B0B0B0B0B0B0B0B010210204B
:10021000200808102040102040800201020108043C
:1002200002010102040810204080804020100804D0
:100230000201800402018040201008040201080429
:10024000020101020408102040800102040810206D
:1002500040802F0811241FBECFEFD1E2DEBFCDBFFB
:1002600000E00CBF12E0A0E0B2E0E4EDF3E100E05A
:100270000BBF02C007900D92A639B107D9F723E052
:10028000A6E9B2E001C01D92AE35B207E1F711E078
:10029000CAE2D1E000E006C021970109802FFE01EB
:1002A0000E94E009C932D10780E00807A9F70E943F
:1002B00062080C94E8090C940000AF92BF92CF92B0
:1002C000DF92EF92FF920F931F93CF93DF936C0116
:1002D0007B018B01040F151FEB015E01AE18BF08F7
:1002E000C017D10759F06991D601ED91FC910190A9
:1002F000F081E02DC6011995892B79F7C501DF91B1
:10030000CF911F910F91FF90EF90DF90CF90BF9012
:10031000AF900895FC01538D448D252F30E0842F3C
:1003200090E0821B930B541710F0CF96089501971D
:100330000895FC01918D828D981761F0A28DAE0F0A
:10034000BF2FB11D5D968C91928D9F5F9F73928F91
:1003500090E008958FEF9FEF0895FC01918D828DBD
:10036000981731F0828DE80FF11D858D90E008958A
:100370008FEF9FEF0895FC01918D228D892F90E0E2
:10038000805C9F4F821B91098F73992708958FEB93
:1003900092E00E94BB0121E0892B09F420E0822F2A
:1003A0000895FC01A48DA80FB92FB11DA35ABF4F0A
:1003B0002C91848D90E001968F739927848FA68964
:1003C000B7892C93A089B1898C91837080648C93B8
:1003D000938D848D981306C00288F389E02D808167
:1003E0008F7D80830895EF92FF920F931F93CF9399
:1003F000DF93EC0181E0888F9B8D8C8D98131AC060
:10040000E889F989808185FF15C09FB7F894EE8946
:10041000FF896083E889F9898081837080648083A3
:100420009FBF81E090E0DF91CF911F910F91FF90EE
:10043000EF900895F62E0B8D10E00F5F1F4F0F7396
:100440001127E02E8C8D8E110CC00FB607FCFACF51
:10045000E889F989808185FFF5CFCE010E94D1011D
:10046000F1CFEB8DEC0FFD2FF11DE35AFF4FF08222
:100470009FB7F8940B8FEA89FB8980818062CFCF88
:10048000CF93DF93EC01888D8823B9F0AA89BB89CB
:10049000E889F9898C9185FD03C0808186FD0DC0B6
:1004A0000FB607FCF7CF8C9185FFF2CF808185FFD7
:1004B000EDCFCE010E94D101E9CFDF91CF91089518
:1004C00080E090E0892B29F00E94C70181110E94F1
:1004D000000080E090E0892B49F080E090E0892BDB
:1004E00029F00E94000081110E94000080E090E04D
:1004F000892B49F080E090E0892B29F00E940000D0
:1005000081110E94000080E090E0892B49F080E09A
:1005100090E0892B29F00E94000081110C940000CA
:100520000895282F30E0F901E45BFE4F9491F90122
:10053000E45FFD4F44912A533E4FF9012491222359
:1005400009F435C0992311F191509231F8F4E92F53
:10055000F0E08827E155FD4F8F4F0C94E009E00251
:10056000E402C102D802DC02C602E702ED02F10297
:10057000F702FB02FF0205030903C6020D03130382
:100580001703809180008F7780938000E22FF0E046
:10059000EE0FFF1FEE56FE4FA591B4918FB7F89462
:1005A000EC91611148C040954E234C938FBF089544
:1005B000809180008F7DE8CF80918000877FE4CF9D
:1005C00084B58F7784BDE2CF84B58F7DFBCF8091DA
:1005D000B0008F778093B000D9CF8091B0008F7D2D
:1005E000F9CF809190008F7780939000CFCF80914A
:1005F00090008F7DF9CF80919000877FF5CF80911B
:10060000A0008F778093A000C1CF8091A0008F7D44
:10061000F9CF8091A000877FF5CF809120018F775F
:1006200080932001B3CF809120018F7DF9CF8091FD
:100630002001877FF5CF4E2BB8CF3FB7F89480913C
:10064000A1029091A202A091A302B091A40226B5AA
:10065000A89B05C02F3F19F00196A11DB11D3FBFFA
:10066000BA2FA92F982F8827BC01CD01620F711DC9
:10067000811D911D42E0660F771F881F991F4A95C3
:10068000D1F708950895CF93C82F682F8AE10E946B
:1006900091026C2F8BE10E9491026C2F82E30E94E9
:1006A00091026C2F83E3CF910C949102CF93C82FCA
:1006B000682F8DE10E9491026C2F8CE10E949102C3
:1006C0006C2F84E30E9491026C2F85E3CF910C94F0
:1006D00091020F931F93CF93DF93CEE3D2E08881F3
:1006E000229661E00E94910282E0C036D807B9F7F5
:1006F000CCE1D2E00EE312E08881229661E00E9414
:1007000091020C171D07C1F761E087E10E94910279
:1007100061E088E10E94910261E089E10E9491021A
:1007200061E08FE20E94910261E080E30E94910209
:1007300061E081E30E94910261E08AE10E949102FE
:1007400061E08BE10E94910261E082E30E949102EC
:1007500061E083E30E94910261E08DE10E949102D9
:1007600061E08CE10E94910261E084E30E949102C9
:1007700061E085E3DF91CF911F910F910C9491027D
:100780000F931F938FB7F89440919D0250919E0252
:1007900060919F027091A0028FBF8091960290910C
:1007A0009702A0919802B09199028A019B01081BBF
:1007B000190B2A0B3B0BD901C801893C9105A105F6
:1007C000B10528F08091BE028F5F8093BE024093F6
:1007D00096025093970260939802709399021F912A
:1007E0000F910895FC0101900020E9F73197AF01C6
:1007F000481B590BBC018FEB92E00C945D018F926A
:100800009F92AF92BF92CF92DF92EF92FF926B01D5
:100810007C010E941D034B015C01C114D104E10461
:10082000F10449F4FF90EF90DF90CF90BF90AF902C
:100830009F908F9008959091BE028091BD0298176D
:10084000B1F061E070E085EA92E00E94830921E066
:10085000C21AD108E108F10888EE880E83E0981EDC
:10086000A11CB11CC114D104E104F104D9F20E940D
:100870001D03681979098A099B09683E734081053F
:10088000910528F7CACF6F927F928F929F92AF9275
:10089000BF92CF92DF92EF92FF920F931F93CF936D
:1008A000DF93CDB7DEB7A1970FB6F894DEBF0FBECA
:1008B000CDBF65E070E080E090E00E94FF03909182
:1008C000BE028091BD029817D9F185EA92E00E949C
:1008D00061096091BE0290E080E00E94B0098091C1
:1008E000BE028093BD0282E792E00E94F203209153
:1008F000BE0230E050E040E019A28E010F5D1F4FB4
:100900006AE0C62ED12CE12CF12CCA01B901A70155
:1009100096010E94BE09605DF80162938F01211566
:1009200031054105510589F73097B1F482E892E02D
:100930000E94F2030E94690310929B0210929A0295
:100940008091BE02813009F4B7C050F0823009F4C2
:100950007BC10E9469039BC0CF010E94F203E6CFD6
:1009600090E080E00E94560360EA70E080E090E052
:100970000E94FF0381E090E00E94560364E670E06D
:1009800080E090E00E94FF032CE1C22E22E0D22EF4
:100990003EE3E32E32E0F32E05EF1FEF20915C03E0
:1009A00030915D03C8010B96821793070CF05BC072
:1009B000F701A080F2E0EF0EF11C60E08A2D0E94AA
:1009C00091020330110508F444C0F601B080F2E052
:1009D000CF0ED11C60E08B2D0E94910203301105D7
:1009E00048F4F801EE0FFF1FE05FFD4F60E08081EB
:1009F0000E94910260E570E080E090E00E94FF03B9
:100A000061E08A2D0E9491020330110548F4F8013B
:100A1000EE0FFF1FEA5EFD4F61E080810E949102B0
:100A200061E08B2D0E9491020330110548F4F8011A
:100A3000EE0FFF1FE05FFD4F61E080810E94910299
:100A400062E370E080E090E00E94FF030F5F1F4FC1
:100A5000A5CFF801EE0FFF1FEA5EFD4F60E0808139
:100A60000E949102B2CF90E080E00E94430360EACE
:100A700070E080E090E00E94FF0381E090E00E943F
:100A8000430364E670E080E090E00E94FF03A196DB
:100A90000FB6F894DEBF0FBECDBFDF91CF911F918F
:100AA0000F91FF90EF90DF90CF90BF90AF909F900D
:100AB0008F907F906F900895C0909A02D0909B0283
:100AC00085E1C816D1040CF0AAC06CE1862E62E064
:100AD000962E7EE3A72E72E0B72EE5EFEE2EFF24D2
:100AE000FA9410E000E080915C0390915D03081798
:100AF00019076CF0EFEFCE1ADE0AF6E1CF16D1043B
:100B00000CF09BC0D0929B02C0929A02C0CFF5011C
:100B10006080F2E0AF0EB11C60E0862D0E94910271
:100B200083E0E816F10408F466C0F4017080F2E096
:100B30008F0E911C60E0872D0E94910283E0E816E1
:100B4000F10448F4F801EE0FFF1FE650FE4F60E09D
:100B500080810E94910265E170E080E090E00E9457
:100B6000FF0361E0862D0E949102E3E0EE16F1049E
:100B700048F4F801EE0FFF1FE050FE4F61E0808166
:100B80000E94910261E0872D0E949102F3E0EF162E
:100B9000F10448F4F801EE0FFF1FE650FE4F61E04C
:100BA00080810E94910264E070E080E090E00E9409
:100BB000FF030C151D05CCF460E0862D0E94910208
:100BC000E3E0EE16F10408F160E0872D0E94910247
:100BD000F3E0EF16F10448F4F801EE0FFF1FE650C2
:100BE000FE4F60E080810E9491020F5F1F4F8FEFE8
:100BF000E81AF80A78CFF801EE0FFF1FE050FE4F19
:100C000060E080810E94910290CFF801EE0FFF1FFB
:100C1000E050FE4F60E080810E949102D5CF85E1D7
:100C2000C816D10409F066CF90E080E00E94560318
:100C300090E080E00E9443035DCF85E190E09093D7
:100C40009B0280939A0223CF90E080E00E9456039B
:100C500090E080E00E9443031ACF1F920F920FB6DC
:100C60000F9211240BB60F922F933F934F935F93E4
:100C70006F937F938F939F93AF93BF93EF93FF9364
:100C80008FEB92E00E94D101FF91EF91BF91AF9164
:100C90009F918F917F916F915F914F913F912F9194
:100CA0000F900BBE0F900FBE0F901F9018951F92C4
:100CB0000F920FB60F9211240BB60F922F938F93B2
:100CC0009F93EF93FF93E091CF02F091D002808148
:100CD000E091D502F091D60282FD1DC090818091F5
:100CE000D8028F5F8F732091D902821741F0E09173
:100CF000D802F0E0E154FD4F958F8093D802FF9128
:100D0000EF919F918F912F910F900BBE0F900FBE7F
:100D10000F901F9018958081F2CF1F920F920FB6FF
:100D20000F9211242F933F938F939F93AF93BF9371
:100D300080919D0290919E02A0919F02B091A0028D
:100D400030919C0223E0230F2D3758F50196A11D09
:100D5000B11D20939C0280939D0290939E02A093CC
:100D60009F02B093A0028091A1029091A202A09153
:100D7000A302B091A4020196A11DB11D8093A1020E
:100D80009093A202A093A302B093A402BF91AF914B
:100D90009F918F913F912F910F900FBE0F901F90B9
:100DA000189526E8230F0296A11DB11DD2CF1F92E0
:100DB0000F920FB60F9211240BB60F922F933F9301
:100DC0004F935F936F937F938F939F93AF93BF9353
:100DD000EF93FF93E0910E02F0910F021995FF91AE
:100DE000EF91BF91AF919F918F917F916F915F91A3
:100DF0004F913F912F910F900BBE0F900FBE0F9010
:100E00001F9018951F920F920FB60F9211240BB6D8
:100E10000F922F933F934F935F936F937F938F9393
:100E20009F93AF93BF93EF93FF93E0910C02F091E8
:100E30000D021995FF91EF91BF91AF919F918F9105
:100E40007F916F915F914F913F912F910F900BBECA
:100E50000F900FBE0F901F9018951F920F920FB614
:100E60000F9211240BB60F922F933F934F935F93E2
:100E70006F937F938F939F93AF93BF93EF93FF9362
:100E8000E0910202F09103021995FF91EF91BF9159
:100E9000AF919F918F917F916F915F914F913F9112
:100EA0002F910F900BBE0F900FBE0F901F901895B3
:100EB0001F920F920FB60F9211240BB60F922F9321
:100EC0003F934F935F936F937F938F939F93AF93D2
:100ED000BF93EF93FF93E0910002F0910102199507
:100EE000FF91EF91BF91AF919F918F917F916F9102
:100EF0005F914F913F912F910F900BBE0F900FBEBE
:100F00000F901F9018951F920F920FB60F921124F9
:100F10000BB60F922F933F934F935F936F937F93F3
:100F20008F939F93AF93BF93EF93FF93E0910A0248
:100F3000F0910B021995FF91EF91BF91AF919F91A5
:100F40008F917F916F915F914F913F912F910F9072
:100F50000BBE0F900FBE0F901F9018951F920F920F
:100F60000FB60F9211240BB60F922F933F934F930E
:100F70005F936F937F938F939F93AF93BF93EF9301
:100F8000FF93E0910802F09109021995FF91EF910A
:100F9000BF91AF919F918F917F916F915F914F9191
:100FA0003F912F910F900BBE0F900FBE0F901F908F
:100FB00018951F920F920FB60F9211240BB60F9235
:100FC0002F933F934F935F936F937F938F939F9351
:100FD000AF93BF93EF93FF93E0910602F091070266
:100FE0001995FF91EF91BF91AF919F918F917F9153
:100FF0006F915F914F913F912F910F900BBE0F908A
:101000000FBE0F901F9018951F920F920FB60F9260
:1010100011240BB60F922F933F934F935F936F93CF
:101020007F938F939F93AF93BF93EF93FF93E09141
:101030000402F09105021995FF91EF91BF91AF91D4
:101040009F918F917F916F915F914F913F912F91E0
:101050000F900BBE0F900FBE0F901F901895EFEBE7
:10106000F2E01382128288EE93E0A0E0B0E0848385
:101070009583A683B78384E692E09183808385EC91
:1010800090E09587848784EC90E09787868780EC52
:1010900090E0918B808B81EC90E0938B828B82EC43
:1010A00090E0958B848B86EC90E0978B868B118EED
:1010B000128E138E148E81E190E090935D038093E5
:1010C0005C030895789484B5826084BD84B58160A2
:1010D00084BD85B5826085BD85B5816085BD809103
:1010E0006E00816080936E0010928100809181007B
:1010F0008260809381008091810081608093810073
:10110000809180008160809380008091B100846034
:101110008093B1008091B00081608093B000809195
:101120009100826080939100809191008160809312
:101130009100809190008160809390008091A10047
:1011400082608093A1008091A10081608093A100C2
:101150008091A00081608093A00080912101826035
:1011600080932101809121018160809321018091F0
:10117000200181608093200180917A0084608093B7
:101180007A0080917A00826080937A0080917A0060
:10119000816080937A0080917A00806880937A00E1
:1011A0001092C100E091CF02F091D00282E08083E2
:1011B000E091CB02F091CC021082E091CD02F0914F
:1011C000CE028FEC80831092D702E091D302F0918F
:1011D000D40286E08083E091D102F091D202808136
:1011E00080618083E091D102F091D2028081886099
:1011F0008083E091D102F091D20280818068808367
:10120000E091D102F091D20280818F7D8083E1E56F
:10121000F2E02491EBE0F2E084918823C1F090E0C9
:10122000880F991FFC01E455FE4FC591D491FC0134
:10123000EE56FE4FA591B4919FB7F8943881822F56
:10124000809583238883EC91E22BEC939FBFC6E0CB
:10125000D0E08C2FFE01E45FFD4F9491FE01EA5334
:10126000FE4F2491222399F030E0220F331FF90121
:10127000E455FE4FA591B491F901EE56FE4F25912C
:1012800034912FB7F894EC91E92BEC932FBF61E0E8
:101290000E9491022196C633D105D9F690E080E0F4
:1012A0000E94A8098093BE0285E892E00E94F203A2
:1012B00082E892E00E94F2030E9443040E946002CE
:1012C000FBCFDC012D923D924D925D926D927D920D
:1012D0008D929D92AD92BD92CD92DD92ED92FD9256
:1012E0000D931D93CD93DD930F90FF91EF918DB7EB
:1012F0008D938EB78D938FB78D93ED93FD93882744
:1013000099270D9221C0DC01CB0181309105811D0F
:101310002D903D904D905D906D907D908D909D9025
:10132000AD90BD90CD90DD90ED90FD900D911D9113
:10133000CD91DD91ED91FD910D90F894FEBF0FBE22
:10134000EDBFED91FD910D90EF93FF930F920895F6
:10135000F999FECF92BD81BDF89A992780B508957D
:10136000262FF999FECF1FBA92BD81BD20BD0FB6C1
:10137000F894FA9AF99A0FBE01960895A1E21A2EEE
:10138000AA1BBB1BFD010DC0AA1FBB1FEE1FFF1F29
:10139000A217B307E407F50720F0A21BB30BE40B79
:1013A000F50B661F771F881F991F1A9469F76095C0
:1013B0007095809590959B01AC01BD01CF0108957A
:1013C000EE0FFF1F881F8BBF0790F691E02D199439
:0413D000F894FFCFBF
:1013D40042034203420342034203420342034203E1
:1013E4002F00300031001700180019001E001F00E4
:1013F40020002100220023002400250026002700CD
:10140400280029002A002B002C002D002E000600A5
:101414000700080009000A000B000C000D000E0074
:101424000F00100011001200130014001500160024
:1014340000000000F3015D018A014002BB01990133
:10144400AD01627574746F6E436F756E7465723A34
:1014540020000D0A003C534554555020434F4D5035
:061464004C4554453E001A
:00000001FF
