:100000000C9435010C9466010C9466010C94660105
:100010000C9466010C9466010C9466010C946601C4
:100020000C9466010C9466010C9466010C946601B4
:100030000C9466010C9466010C9466010C946601A4
:100040000C9466010C9466010C9466010C94660194
:100050000C9466010C9466010C9466010C94810466
:100060000C9466010C944B040C9421040C946601CE
:100070000C9466010C9466010C9466010C94660164
:100080000C9466010C9466010C9466010C94660154
:100090000C9466010C9466010C9466010C94660144
:1000A0000C9466010C9466010C9466010C94660134
:1000B0000C9466010C9466010C9466010C94660124
:1000C0000C9466010C9466010C9466010C94660114
:1000D0000C9466010C9466010C9466010C94660104
:1000E0000C9466010C94FB020C94CF020C94C80291
:1000F0000C9495010C94F5020C94D9020C944B02CB
:100100000C94B8010C94E3020C94FF020C94CB0401
:100110000C9468010C94C4020C94C0020C94F1027B
:100120000C94FE010C94BA020C94CC020C94FA02CA
:100130000C94A4010C94ED020C94C6010C94DF0203
:100140000C94D5020C94E702000022002500280040
:100150002B002E00310034000201000005010801CF
:100160000B0100002100240027002A002D00300090
:10017000330001010000040107010A010000200012
:100180002300260029002C002F003200000100006F
:10019000030106010901050505050705080808080A
:1001A000020202020A0A080804040404010101010F
:1001B000010101010303030303030303040707070A
:1001C0000C0C0C0C0C0C0C0C0202020206060606AF
:1001D000060606060B0B0B0B0B0B0B0B010210207C
:1001E000200808102040102040800201020108046D
:1001F0000201010204081020408080402010080401
:100200000201800402018040201008040201080459
:10021000020101020408102040800102040810209D
:10022000408000000A0B02090C0D0E0807030401B0
:1002300000000000000000000000000000000000BE
:10024000000000000000000000000000000012118B
:10025000100000000000000000000000000000008E
:100260000000000000000000CB0411241FBECFEFEF
:10027000D1E2DEBFCDBF00E00CBF12E0A0E0B2E0F3
:10028000EAE7F0E100E00BBF02C007900D92A83949
:10029000B107D9F723E0A8E9B2E001C01D92A73465
:1002A000B207E1F711E0C5E3D1E000E006C0219715
:1002B0000109802FFE010E943308C433D10780E07A
:1002C0000807A9F70E94FE040C943B080C94000058
:1002D000AF92BF92CF92DF92EF92FF920F931F9354
:1002E000CF93DF936C017B018B01040F151FEB0192
:1002F0005E01AE18BF08C017D10759F06991D60149
:10030000ED91FC910190F081E02DC6011995892BAA
:1003100079F7C501DF91CF911F910F91FF90EF9079
:10032000DF90CF90BF90AF900895FC01538D448D26
:10033000252F30E0842F90E0821B930B541710F090
:10034000CF96089501970895FC01918D828D98179D
:1003500061F0A28DAE0FBF2FB11D5D968C91928D75
:100360009F5F9F73928F90E008958FEF9FEF0895A6
:10037000FC01918D828D981731F0828DE80FF11D6F
:10038000858D90E008958FEF9FEF0895FC01918D8A
:10039000228D892F90E0805C9F4F821B91098F7383
:1003A0009927089588EA92E00E94C60121E0892BEE
:1003B00009F420E0822F0895FC01A48DA80FB92F25
:1003C000B11DA35ABF4F2C91848D90E001968F737D
:1003D0009927848FA689B7892C93A089B1898C919C
:1003E000837080648C93938D848D981306C00288EB
:1003F000F389E02D80818F7D80830895EF92FF92B5
:100400000F931F93CF93DF93EC0181E0888F9B8D37
:100410008C8D98131AC0E889F989808185FF15C0F1
:100420009FB7F894EE89FF896083E889F989808114
:100430008370806480839FBF81E090E0DF91CF91E3
:100440001F910F91FF90EF900895F62E0B8D10E005
:100450000F5F1F4F0F731127E02E8C8D8E110CC074
:100460000FB607FCFACFE889F989808185FFF5CFBF
:10047000CE010E94DC01F1CFEB8DEC0FFD2FF11DC1
:10048000E35AFF4FF0829FB7F8940B8FEA89FB89FC
:1004900080818062CFCFCF93DF93EC01888D88235A
:1004A000B9F0AA89BB89E889F9898C9185FD03C0D7
:1004B000808186FD0DC00FB607FCF7CF8C9185FFBC
:1004C000F2CF808185FFEDCFCE010E94DC01E9CF24
:1004D000DF91CF91089580E090E0892B29F00E9470
:1004E000D20181110E94000080E090E0892B49F048
:1004F00080E090E0892B29F00E94000081110E9489
:10050000000080E090E0892B49F080E090E0892BAA
:1005100029F00E94000081110E94000080E090E01C
:10052000892B49F080E090E0892B29F00E9400009F
:1005300081110C94000008958150823108F05AC056
:10054000E82FF0E08827E855FD4F8F4F0C943308D3
:10055000C802CC02BA02C002C402FA02CF02D5021B
:10056000D902DF02E302E702ED02F102FA02F5022C
:10057000FB02FF02809180008F77809380000895B6
:10058000809180008F7DF9CF80918000877FF5CFAB
:1005900084B58F7784BD089584B58F7DFBCF80911E
:1005A000B0008F778093B00008958091B0008F7D68
:1005B000F9CF809190008F7780939000089580917B
:1005C00090008F7DF9CF80919000877FF5CF80914B
:1005D000A0008F778093A00008958091A0008F7D68
:1005E000F9CF8091A000877FF5CF809120018F7790
:1005F000809320010895809120018F7DF9CF809113
:100600002001877FF5CF1F93CF93DF93282F30E012
:10061000F901EE5DFD4F8491F901E452FE4FD49152
:10062000F901EA56FE4FC491CC23A9F0162F81118F
:100630000E949C02EC2FF0E0EE0FFF1FE85BFE4FE4
:10064000A591B4918FB7F894EC91111108C0D09591
:10065000DE23DC938FBFDF91CF911F910895DE2BB6
:10066000F8CF3FB7F89480919D0290919E02A0919F
:100670009F02B091A00226B5A89B05C02F3F19F09C
:100680000196A11DB11D3FBFBA2FA92F982F882712
:10069000BC01CD01620F711D811D911D42E0660FED
:1006A000771F881F991F4A95D1F708958F929F92BF
:1006B000AF92BF92CF92DF92EF92FF926B017C01DB
:1006C0000E9431034B015C01C114D104E104F10427
:1006D000B9F00E943103681979098A099B09683EBB
:1006E00073408105910580F321E0C21AD108E10829
:1006F000F10888EE880E83E0981EA11CB11CE4CF9F
:10070000FF90EF90DF90CF90BF90AF909F908F9031
:100710000895CF93C82F682F8AE10E9403036C2F9E
:100720008BE10E9403036C2F82E30E9403036C2F72
:1007300083E3CF910C940303CF93C82F682F8DE1EF
:100740000E9403036C2F8CE10E9403036C2F84E34F
:100750000E9403036C2F85E3CF910C9403030F9346
:100760001F93CF93DF93CEE2D2E08881229661E09F
:100770000E94030382E0C035D807B9F7C6E0D2E093
:1007800008E212E08881229661E00E9403030C17C0
:100790001D07C1F761E087E10E94030361E088E182
:1007A0000E94030361E089E10E94030361E08FE29C
:1007B0000E94030361E080E30E94030361E081E3A0
:1007C0000E94030361E08AE10E94030361E08BE180
:1007D0000E94030361E082E30E94030361E083E37C
:1007E0000E94030361E08DE10E94030361E08CE15C
:1007F0000E94030361E084E30E94030361E085E358
:10080000DF91CF911F910F910C940303FC01019094
:100810000020E9F73197AF01481B590BBC0188EA6A
:1008200092E00C946801CF93DF930E940604EC01E0
:1008300082E692E00E9406048C0F9D1FDF91CF910B
:1008400008951F920F920FB60F9211240BB60F92BC
:100850002F933F934F935F936F937F938F939F93C8
:10086000AF93BF93EF93FF9388EA92E00E94DC017D
:10087000FF91EF91BF91AF919F918F917F916F9178
:100880005F914F913F912F910F900BBE0F900FBE34
:100890000F901F9018951F920F920FB60F92112470
:1008A0000BB60F922F938F939F93EF93FF93E0914B
:1008B000B802F091B9028081E091BE02F091BF02CE
:1008C00082FD1DC090818091C1028F5F8F73209146
:1008D000C202821741F0E091C102F0E0E855FD4FFD
:1008E000958F8093C102FF91EF919F918F912F91EE
:1008F0000F900BBE0F900FBE0F901F901895808128
:10090000F2CF1F920F920FB60F9211242F933F93A5
:100910008F939F93AF93BF938091990290919A0286
:10092000A0919B02B0919C023091980223E0230F8A
:100930002D3758F50196A11DB11D20939802809383
:10094000990290939A02A0939B02B0939C0280918B
:100950009D0290919E02A0919F02B091A0020196EB
:10096000A11DB11D80939D0290939E02A0939F02B2
:10097000B093A002BF91AF919F918F913F912F9122
:100980000F900FBE0F901F90189526E8230F029628
:10099000A11DB11DD2CFE8EAF2E01382128288EEE7
:1009A00093E0A0E0B0E084839583A683B78384E5D9
:1009B00092E09183808385EC90E09587848784EC36
:1009C00090E09787868780EC90E0918B808B81EC1C
:1009D00090E0938B828B82EC90E0958B848B86ECFD
:1009E00090E0978B868B118E128E138E148E81E180
:1009F00090E090934603809345030895CF93DF934F
:100A0000CDB7DEB7A1970FB6F894DEBF0FBECDBF4E
:100A1000789484B5826084BD84B5816084BD85B5D9
:100A2000826085BD85B5816085BD80916E008160E5
:100A300080936E001092810080918100826080938B
:100A4000810080918100816080938100809180008D
:100A50008160809380008091B10084608093B100B8
:100A60008091B00081608093B0008091910082609D
:100A7000809391008091910081608093910080919A
:100A800090008160809390008091A10082608093AB
:100A9000A1008091A10081608093A1008091A000BD
:100AA00081608093A0008091210182608093210168
:100AB00080912101816080932101809120018160DA
:100AC0008093200180917A00846080937A008091E5
:100AD0007A00826080937A0080917A0081608093AE
:100AE0007A0080917A00806880937A001092C10029
:100AF000E091B802F091B90282E08083E091B40203
:100B0000F091B5021082E091B602F091B7028FEC3D
:100B100080831092C002E091BC02F091BD0286E099
:100B20008083E091BA02F091BB0280818061808372
:100B3000E091BA02F091BB02808188608083E091ED
:100B4000BA02F091BB02808180688083E091BA0292
:100B5000F091BB0280818F7D8083E1E2F2E02491FD
:100B6000EBEDF1E084918823C9F090E0880F991FA4
:100B7000FC01EE59FE4FA591B491FC01E85BFE4FDC
:100B8000459154919FB7F8943C91822F809583238F
:100B90008C93FA018081282B20839FBF06E010E010
:100BA000802FF801E452FE4F9491F801EA56FE4F6F
:100BB0002491222399F030E0220F331FF901EE59DE
:100BC000FE4FA591B491F901E85BFE4F2591349158
:100BD0002FB7F894EC919E2B9C932FBF61E00E945D
:100BE00003030F5F1F4F06331105D1F690E080E03D
:100BF0000E94FB078093A30285E692E00E94130403
:100C00005AE0852E912CA12CB12C65E070E080E09B
:100C100090E00E945603E7E6F2E08491E1E2F2E020
:100C20001491EBEDF1E00491002309F47EC08111F1
:100C30000E949C02E02FF0E0EE0FFF1FE458FE4FF1
:100C4000A591B4918C91182331E020E009F430E0B3
:100C5000832F922F9093A7028093A6022091A40243
:100C60003091A5022817390709F445C0892B09F0EE
:100C70005FC06091A30270E06F5F7F4F6370772762
:100C80006093A30290E080E00E9403080E94AF03FB
:100C90001092A2021092A10286E792E00E94130431
:100CA00089E792E00E9406042091A30230E050E020
:100CB00040E019A28E010F5D1F4FCA01B901A501C5
:100CC00094010E941108605DF80162938F01211563
:100CD00031054105510589F7309719F0CF010E9480
:100CE000060482E692E00E94060465E070E080E07F
:100CF00090E00E9456038091A6029091A7029093E3
:100D0000A5028093A4028091A302813009F4ADC0B2
:100D1000A0F0823009F06CC190E080E00E949C035A
:100D200090E080E00E9489039DC090E080E092CF37
:100D300083E992E00E941304D8CF90E080E00E9403
:100D40009C0360EA70E080E090E00E94560381E03E
:100D500090E00E949C0364E670E080E090E00E94D6
:100D6000560326E0E22E22E0F22E3EE2C32E32E0CF
:100D7000D32E05EF1FEF2091450330914603C801A4
:100D80000B96821793070CF059C0F6016080F2E0D1
:100D9000CF0ED11C60E0862D0E94030303301105A5
:100DA00048F4F801EE0FFF1FE85DFD4F60E0808121
:100DB0000E940303F7017080F2E0EF0EF11C60E087
:100DC000872D0E9403030330110548F4F801EE0F4C
:100DD000FF1FE050FE4F60E080810E94030360E54A
:100DE00070E080E090E00E94560361E0862D0E9452
:100DF00003030330110548F4F801EE0FFF1FE85D0F
:100E0000FD4F61E080810E94030361E0872D0E9415
:100E100003030330110548F4F801EE0FFF1FE05003
:100E2000FE4F61E080810E94030362E370E080E096
:100E300090E00E9456030F5F1F4F9DCF90E080E02F
:100E40000E94890360EA70E080E090E00E9456030F
:100E500081E090E00E94890364E670E080E090E029
:100E60000E9456030E946B02D0CEC090A102D09087
:100E7000A20285E1C816D1040CF09BC066E0662E84
:100E800062E0762E7EE2472E72E0572EE5EFEE2EE0
:100E9000FF24FA9410E000E080914503909146030E
:100EA000081719070CF091C0F2012080F2E04F0EF4
:100EB000511C60E0822D0E94030383E0E816F104D8
:100EC00048F4F801EE0FFF1FEE5EFD4F60E08081F9
:100ED0000E940303F3013080F2E06F0E711C60E0AA
:100EE000832D0E94030383E0E816F10448F4F8011F
:100EF000EE0FFF1FE651FE4F60E080810E9403036A
:100F000065E170E080E090E00E94560361E0822D90
:100F10000E94030393E0E916F10448F4F801EE0F90
:100F2000FF1FEE5EFD4F61E080810E94030361E0E0
:100F3000832D0E940303E3E0EE16F10448F4F80168
:100F4000EE0FFF1FE651FE4F61E080810E94030318
:100F500064E070E080E090E00E9456030C151D05EF
:100F600014F560E0822D0E940303F3E0EF16F10414
:100F700048F4F801EE0FFF1FEE5EFD4F60E0808148
:100F80000E94030360E0832D0E94030383E0E816C0
:100F9000F10448F4F801EE0FFF1FE651FE4F60E048
:100FA00080810E9403030F5F1F4F9FEFE91AF90A28
:100FB00073CFE5E1CE16D10441F490E080E00E94C9
:100FC0009C0390E080E00E948903FFEFCF1ADF0AC4
:100FD00086E1C816D1042CF4D092A202C092A102DC
:100FE00041CFE5E1F0E0F093A202E093A1023ACF15
:100FF0000E94AF0337CFF999FECF92BD81BDF89A19
:10100000992780B50895262FF999FECF1FBA92BD72
:1010100081BD20BD0FB6F894FA9AF99A0FBE0196D9
:101020000895A1E21A2EAA1BBB1BFD010DC0AA1F29
:10103000BB1FEE1FFF1FA217B307E407F50720F041
:10104000A21BB30BE40BF50B661F771F881F991FBC
:101050001A9469F760957095809590959B01AC0105
:10106000BD01CF010895EE0FFF1F881F8BBF0790B2
:0A107000F691E02D1994F894FFCFDB
:10107A002F00300031001E001F0020002100220036
:10108A0023002400250026002700280029002A0022
:10109A002B002C002D002E00170018001900060046
:1010AA000700080009000A000B000C000D000E00E2
:1010BA000F00100011001200130014001500160092
:1010CA0000000000FE01680195014B02C601A4015F
:1010DA00B8010D0A003C534554555020434F4D501A
:1010EA004C4554453E006F6E006E756D6265722008
:1010FA006F6620627574746F6E207075736865739D
:08110A003A20006F6666000048
:00000001FF
